{"contracts/BlockSniper.sol":{"BlockSniper":{"abi":[{"inputs":[],"stateMutability":"nonpayable","type":"constructor"},{"anonymous":false,"inputs":[{"indexed":false,"internalType":"uint256","name":"totalAmount","type":"uint256"},{"indexed":false,"internalType":"uint256","name":"hardShare","type":"uint256"},{"indexed":false,"internalType":"uint256","name":"normalShare","type":"uint256"},{"indexed":false,"internalType":"uint256","name":"easyShare","type":"uint256"}],"name":"BonusPoolsFunded","type":"event"},{"anonymous":false,"inputs":[{"indexed":true,"internalType":"address","name":"player","type":"address"},{"indexed":false,"internalType":"uint256","name":"totalWagered","type":"uint256"},{"indexed":false,"internalType":"uint256","name":"totalWon","type":"uint256"}],"name":"PlayerStatsUpdated","type":"event"},{"anonymous":false,"inputs":[{"indexed":true,"internalType":"address","name":"player","type":"address"},{"indexed":false,"internalType":"uint256","name":"startBlock","type":"uint256"},{"indexed":false,"internalType":"uint256","name":"entryFee","type":"uint256"}],"name":"SnipeMiss","type":"event"},{"anonymous":false,"inputs":[{"indexed":true,"internalType":"address","name":"winner","type":"address"},{"indexed":false,"internalType":"uint256","name":"blockHit","type":"uint256"},{"indexed":false,"internalType":"uint256","name":"prize","type":"uint256"}],"name":"SnipeSuccess","type":"event"},{"anonymous":false,"inputs":[{"indexed":true,"internalType":"address","name":"player","type":"address"},{"indexed":false,"internalType":"string","name":"newUsername","type":"string"}],"name":"UsernameSet","type":"event"},{"inputs":[{"internalType":"uint256","name":"","type":"uint256"}],"name":"attemptCounters","outputs":[{"internalType":"uint256","name":"","type":"uint256"}],"stateMutability":"view","type":"function"},{"inputs":[],"name":"baseFee","outputs":[{"internalType":"uint256","name":"","type":"uint256"}],"stateMutability":"view","type":"function"},{"inputs":[],"name":"biggestBettor","outputs":[{"internalType":"address","name":"","type":"address"}],"stateMutability":"view","type":"function"},{"inputs":[],"name":"biggestPrize","outputs":[{"internalType":"uint256","name":"","type":"uint256"}],"stateMutability":"view","type":"function"},{"inputs":[],"name":"biggestTotalWagered","outputs":[{"internalType":"uint256","name":"","type":"uint256"}],"stateMutability":"view","type":"function"},{"inputs":[],"name":"biggestWinner","outputs":[{"internalType":"address","name":"","type":"address"}],"stateMutability":"view","type":"function"},{"inputs":[],"name":"bonusPoolEasy","outputs":[{"internalType":"uint256","name":"","type":"uint256"}],"stateMutability":"view","type":"function"},{"inputs":[],"name":"bonusPoolHard","outputs":[{"internalType":"uint256","name":"","type":"uint256"}],"stateMutability":"view","type":"function"},{"inputs":[],"name":"bonusPoolNormal","outputs":[{"internalType":"uint256","name":"","type":"uint256"}],"stateMutability":"view","type":"function"},{"inputs":[{"internalType":"uint256","name":"_fromBlock","type":"uint256"}],"name":"collectAndDistributeStalePool","outputs":[],"stateMutability":"nonpayable","type":"function"},{"inputs":[],"name":"getBonusPools","outputs":[{"internalType":"uint256","name":"hard","type":"uint256"},{"internalType":"uint256","name":"normal","type":"uint256"},{"internalType":"uint256","name":"easy","type":"uint256"}],"stateMutability":"view","type":"function"},{"inputs":[{"internalType":"uint256","name":"_startBlock","type":"uint256"}],"name":"getCurrentEntryFee","outputs":[{"internalType":"uint256","name":"","type":"uint256"}],"stateMutability":"view","type":"function"},{"inputs":[{"internalType":"address","name":"player","type":"address"}],"name":"getPlayerStats","outputs":[{"internalType":"uint256","name":"wagered","type":"uint256"},{"internalType":"uint256","name":"won","type":"uint256"}],"stateMutability":"view","type":"function"},{"inputs":[],"name":"owner","outputs":[{"internalType":"address","name":"","type":"address"}],"stateMutability":"view","type":"function"},{"inputs":[],"name":"percentEasy","outputs":[{"internalType":"uint256","name":"","type":"uint256"}],"stateMutability":"view","type":"function"},{"inputs":[],"name":"percentHard","outputs":[{"internalType":"uint256","name":"","type":"uint256"}],"stateMutability":"view","type":"function"},{"inputs":[],"name":"percentNormal","outputs":[{"internalType":"uint256","name":"","type":"uint256"}],"stateMutability":"view","type":"function"},{"inputs":[{"internalType":"uint256","name":"_startBlock","type":"uint256"},{"internalType":"uint256","name":"_windowSize","type":"uint256"}],"name":"play","outputs":[],"stateMutability":"payable","type":"function"},{"inputs":[{"internalType":"uint256","name":"","type":"uint256"}],"name":"prizePools","outputs":[{"internalType":"uint256","name":"","type":"uint256"}],"stateMutability":"view","type":"function"},{"inputs":[{"internalType":"uint256","name":"_newBaseFee","type":"uint256"}],"name":"setBaseFee","outputs":[],"stateMutability":"nonpayable","type":"function"},{"inputs":[{"internalType":"uint256","name":"_hard","type":"uint256"},{"internalType":"uint256","name":"_normal","type":"uint256"},{"internalType":"uint256","name":"_easy","type":"uint256"}],"name":"setDistributionPercentages","outputs":[],"stateMutability":"nonpayable","type":"function"},{"inputs":[{"internalType":"string","name":"_newUsername","type":"string"}],"name":"setUsername","outputs":[],"stateMutability":"nonpayable","type":"function"},{"inputs":[{"internalType":"address","name":"","type":"address"}],"name":"totalWagered","outputs":[{"internalType":"uint256","name":"","type":"uint256"}],"stateMutability":"view","type":"function"},{"inputs":[{"internalType":"address","name":"","type":"address"}],"name":"totalWon","outputs":[{"internalType":"uint256","name":"","type":"uint256"}],"stateMutability":"view","type":"function"},{"inputs":[{"internalType":"address","name":"","type":"address"}],"name":"usernames","outputs":[{"internalType":"string","name":"","type":"string"}],"stateMutability":"view","type":"function"}],"evm":{"bytecode":{"linkReferences":{},"object":"608060405234801561001057600080fd5b50336000806101000a81548173ffffffffffffffffffffffffffffffffffffffff021916908373ffffffffffffffffffffffffffffffffffffffff160217905550602d6007819055506019600881905550600f60098190555067016345785d8a000060018190555061238d806100876000396000f3fe6080604052600436106101665760003560e01c80638b629e03116100d1578063e05fa2151161008a578063eddad39411610064578063eddad39414610526578063ee91877c14610563578063f0260660146105a0578063f0e3fff8146105cb57610166565b8063e05fa215146104a7578063e58a466f146104d2578063ed59313a146104fd57610166565b80638b629e03146103955780638da5cb5b146103c0578063a1fc5541146103eb578063a2b1728814610414578063bf14ab191461043f578063d4505e241461046a57610166565b8063470762e911610123578063470762e91461027d5780634fd66eae146102ba5780636ef25c3a146102f85780637996685c146103235780637999b66b1461034e5780637bc49a951461037957610166565b806333a544e41461016b578063353cf1fb14610198578063355d4aa3146101c15780633bd4e251146101fe5780633f0a9b02146102295780634686069814610254575b600080fd5b34801561017757600080fd5b50610180610608565b60405161018f939291906114d1565b60405180910390f35b3480156101a457600080fd5b506101bf60048036038101906101ba9190611548565b610621565b005b3480156101cd57600080fd5b506101e860048036038101906101e3919061159b565b610723565b6040516101f591906115c8565b60405180910390f35b34801561020a57600080fd5b5061021361073b565b60405161022091906115c8565b60405180910390f35b34801561023557600080fd5b5061023e610741565b60405161024b91906115c8565b60405180910390f35b34801561026057600080fd5b5061027b6004803603810190610276919061159b565b610747565b005b34801561028957600080fd5b506102a4600480360381019061029f9190611641565b6107df565b6040516102b191906115c8565b60405180910390f35b3480156102c657600080fd5b506102e160048036038101906102dc9190611641565b6107f7565b6040516102ef92919061166e565b60405180910390f35b34801561030457600080fd5b5061030d610883565b60405161031a91906115c8565b60405180910390f35b34801561032f57600080fd5b50610338610889565b60405161034591906115c8565b60405180910390f35b34801561035a57600080fd5b5061036361088f565b60405161037091906115c8565b60405180910390f35b610393600480360381019061038e9190611697565b610895565b005b3480156103a157600080fd5b506103aa610ed7565b6040516103b791906115c8565b60405180910390f35b3480156103cc57600080fd5b506103d5610edd565b6040516103e291906116e6565b60405180910390f35b3480156103f757600080fd5b50610412600480360381019061040d919061159b565b610f01565b005b34801561042057600080fd5b5061042961122d565b60405161043691906115c8565b60405180910390f35b34801561044b57600080fd5b50610454611233565b60405161046191906115c8565b60405180910390f35b34801561047657600080fd5b50610491600480360381019061048c919061159b565b611239565b60405161049e91906115c8565b60405180910390f35b3480156104b357600080fd5b506104bc61126f565b6040516104c991906116e6565b60405180910390f35b3480156104de57600080fd5b506104e7611295565b6040516104f491906115c8565b60405180910390f35b34801561050957600080fd5b50610524600480360381019061051f9190611847565b61129b565b005b34801561053257600080fd5b5061054d6004803603810190610548919061159b565b6113c2565b60405161055a91906115c8565b60405180910390f35b34801561056f57600080fd5b5061058a60048036038101906105859190611641565b6113da565b604051610597919061190f565b60405180910390f35b3480156105ac57600080fd5b506105b561147a565b6040516105c291906116e6565b60405180910390f35b3480156105d757600080fd5b506105f260048036038101906105ed9190611641565b6114a0565b6040516105ff91906115c8565b60405180910390f35b6000806000600454600554600654925092509250909192565b60008054906101000a900473ffffffffffffffffffffffffffffffffffffffff1673ffffffffffffffffffffffffffffffffffffffff163373ffffffffffffffffffffffffffffffffffffffff16146106af576040517f08c379a00000000000000000000000000000000000000000000000000000000081526004016106a6906119a3565b60405180910390fd5b60648183856106be91906119f2565b6106c891906119f2565b1115610709576040517f08c379a000000000000000000000000000000000000000000000000000000000815260040161070090611a72565b60405180910390fd5b826007819055508160088190555080600981905550505050565b60026020528060005260406000206000915090505481565b60065481565b60085481565b60008054906101000a900473ffffffffffffffffffffffffffffffffffffffff1673ffffffffffffffffffffffffffffffffffffffff163373ffffffffffffffffffffffffffffffffffffffff16146107d5576040517f08c379a00000000000000000000000000000000000000000000000000000000081526004016107cc906119a3565b60405180910390fd5b8060018190555050565b600a6020528060005260406000206000915090505481565b600080600a60008473ffffffffffffffffffffffffffffffffffffffff1673ffffffffffffffffffffffffffffffffffffffff16815260200190815260200160002054600b60008573ffffffffffffffffffffffffffffffffffffffff1673ffffffffffffffffffffffffffffffffffffffff1681526020019081526020016000205491509150915091565b60015481565b60075481565b600d5481565b60006108a083611239565b90508034146108e4576040517f08c379a00000000000000000000000000000000000000000000000000000000081526004016108db90611ade565b60405180910390fd5b60018214806108f35750600582145b806108fe5750600a82145b61093d576040517f08c379a000000000000000000000000000000000000000000000000000000000815260040161093490611b4a565b60405180910390fd5b80600a60003373ffffffffffffffffffffffffffffffffffffffff1673ffffffffffffffffffffffffffffffffffffffff168152602001908152602001600020600082825461098c91906119f2565b92505081905550600f54600a60003373ffffffffffffffffffffffffffffffffffffffff1673ffffffffffffffffffffffffffffffffffffffff168152602001908152602001600020541115610a6457600a60003373ffffffffffffffffffffffffffffffffffffffff1673ffffffffffffffffffffffffffffffffffffffff16815260200190815260200160002054600f8190555033600e60006101000a81548173ffffffffffffffffffffffffffffffffffffffff021916908373ffffffffffffffffffffffffffffffffffffffff1602179055505b60008284610a7291906119f2565b9050804310610ab6576040517f08c379a0000000000000000000000000000000000000000000000000000000008152600401610aad90611bdc565b60405180910390fd5b834310158015610ac557508043105b15610d5f5760006003600086815260200190815260200160002054905060008482610af09190611c2b565b905060008183610b009190611c5c565b90508060036000898152602001908152602001600020819055506000600260008981526020019081526020016000208190555060008234610b4191906119f2565b905060018703610b685760045481610b5991906119f2565b90506000600481905550610bb0565b60058703610b8d5760055481610b7e91906119f2565b90506000600581905550610baf565b600a8703610bae5760065481610ba391906119f2565b905060006006819055505b5b5b600d54811115610c035780600d8190555033600c60006101000a81548173ffffffffffffffffffffffffffffffffffffffff021916908373ffffffffffffffffffffffffffffffffffffffff1602179055505b80600b60003373ffffffffffffffffffffffffffffffffffffffff1673ffffffffffffffffffffffffffffffffffffffff1681526020019081526020016000206000828254610c5291906119f2565b9250508190555060003373ffffffffffffffffffffffffffffffffffffffff1682604051610c7f90611cc1565b60006040518083038185875af1925050503d8060008114610cbc576040519150601f19603f3d011682016040523d82523d6000602084013e610cc1565b606091505b5050905080610d05576040517f08c379a0000000000000000000000000000000000000000000000000000000008152600401610cfc90611d22565b60405180910390fd5b3373ffffffffffffffffffffffffffffffffffffffff167f35c728d20144d84eab692166b0831c2a9d71d052e243da8c28d1e7bc8ee00bdf4384604051610d4d92919061166e565b60405180910390a25050505050610e03565b34600360008681526020019081526020016000206000828254610d8291906119f2565b92505081905550600260008581526020019081526020016000206000815480929190610dad90611d42565b91905055503373ffffffffffffffffffffffffffffffffffffffff167f48aa3c793329fc37c8fadc61b042500f3d29307c71aa9b001a8234a3e01269e88534604051610dfa92919061166e565b60405180910390a25b3373ffffffffffffffffffffffffffffffffffffffff167f518fe7501685a267757fa6cd1db666952ee3e655b901ba1eb1cd4e50cfdc8588600a60003373ffffffffffffffffffffffffffffffffffffffff1673ffffffffffffffffffffffffffffffffffffffff16815260200190815260200160002054600b60003373ffffffffffffffffffffffffffffffffffffffff1673ffffffffffffffffffffffffffffffffffffffff16815260200190815260200160002054604051610ec992919061166e565b60405180910390a250505050565b60045481565b60008054906101000a900473ffffffffffffffffffffffffffffffffffffffff1681565b60008054906101000a900473ffffffffffffffffffffffffffffffffffffffff1673ffffffffffffffffffffffffffffffffffffffff163373ffffffffffffffffffffffffffffffffffffffff1614610f8f576040517f08c379a0000000000000000000000000000000000000000000000000000000008152600401610f86906119a3565b60405180910390fd5b804311610fd1576040517f08c379a0000000000000000000000000000000000000000000000000000000008152600401610fc890611dfc565b60405180910390fd5b6000600360008381526020019081526020016000205490506000811161102c576040517f08c379a000000000000000000000000000000000000000000000000000000000815260040161102390611e68565b60405180910390fd5b6000600360008481526020019081526020016000208190555060006064600754836110579190611e88565b6110619190611c2b565b905060006064600854846110759190611e88565b61107f9190611c2b565b905060006064600954856110939190611e88565b61109d9190611c2b565b90506000818385876110af9190611c5c565b6110b99190611c5c565b6110c39190611c5c565b905083600460008282546110d791906119f2565b9250508190555082600560008282546110f091906119f2565b92505081905550816006600082825461110991906119f2565b9250508190555060008111156111e85760008060009054906101000a900473ffffffffffffffffffffffffffffffffffffffff1673ffffffffffffffffffffffffffffffffffffffff168260405161116090611cc1565b60006040518083038185875af1925050503d806000811461119d576040519150601f19603f3d011682016040523d82523d6000602084013e6111a2565b606091505b50509050806111e6576040517f08c379a00000000000000000000000000000000000000000000000000000000081526004016111dd90611f16565b60405180910390fd5b505b7f2ca0de4ee0337a8a2eee81f43538bf24bf4d8866771ccd3e7722c7c2acea76788585858560405161121d9493929190611f36565b60405180910390a1505050505050565b60055481565b60095481565b60006001600260008481526020019081526020016000205461125b91906119f2565b6001546112689190611e88565b9050919050565b600e60009054906101000a900473ffffffffffffffffffffffffffffffffffffffff1681565b600f5481565b60008151116112df576040517f08c379a00000000000000000000000000000000000000000000000000000000081526004016112d690611fc7565b60405180910390fd5b602081511115611324576040517f08c379a000000000000000000000000000000000000000000000000000000000815260040161131b90612059565b60405180910390fd5b80601060003373ffffffffffffffffffffffffffffffffffffffff1673ffffffffffffffffffffffffffffffffffffffff16815260200190815260200160002090816113709190612285565b503373ffffffffffffffffffffffffffffffffffffffff167f74d8e560d2e870c35b35dc882df2a5c96e2bf1cdb5ef6dd2f9cb433c8d048853826040516113b7919061190f565b60405180910390a250565b60036020528060005260406000206000915090505481565b601060205280600052604060002060009150905080546113f9906120a8565b80601f0160208091040260200160405190810160405280929190818152602001828054611425906120a8565b80156114725780601f1061144757610100808354040283529160200191611472565b820191906000526020600020905b81548152906001019060200180831161145557829003601f168201915b505050505081565b600c60009054906101000a900473ffffffffffffffffffffffffffffffffffffffff1681565b600b6020528060005260406000206000915090505481565b6000819050919050565b6114cb816114b8565b82525050565b60006060820190506114e660008301866114c2565b6114f360208301856114c2565b61150060408301846114c2565b949350505050565b6000604051905090565b600080fd5b600080fd5b611525816114b8565b811461153057600080fd5b50565b6000813590506115428161151c565b92915050565b60008060006060848603121561156157611560611512565b5b600061156f86828701611533565b935050602061158086828701611533565b925050604061159186828701611533565b9150509250925092565b6000602082840312156115b1576115b0611512565b5b60006115bf84828501611533565b91505092915050565b60006020820190506115dd60008301846114c2565b92915050565b600073ffffffffffffffffffffffffffffffffffffffff82169050919050565b600061160e826115e3565b9050919050565b61161e81611603565b811461162957600080fd5b50565b60008135905061163b81611615565b92915050565b60006020828403121561165757611656611512565b5b60006116658482850161162c565b91505092915050565b600060408201905061168360008301856114c2565b61169060208301846114c2565b9392505050565b600080604083850312156116ae576116ad611512565b5b60006116bc85828601611533565b92505060206116cd85828601611533565b9150509250929050565b6116e081611603565b82525050565b60006020820190506116fb60008301846116d7565b92915050565b600080fd5b600080fd5b6000601f19601f8301169050919050565b7f4e487b7100000000000000000000000000000000000000000000000000000000600052604160045260246000fd5b6117548261170b565b810181811067ffffffffffffffff821117156117735761177261171c565b5b80604052505050565b6000611786611508565b9050611792828261174b565b919050565b600067ffffffffffffffff8211156117b2576117b161171c565b5b6117bb8261170b565b9050602081019050919050565b82818337600083830152505050565b60006117ea6117e584611797565b61177c565b90508281526020810184848401111561180657611805611706565b5b6118118482856117c8565b509392505050565b600082601f83011261182e5761182d611701565b5b813561183e8482602086016117d7565b91505092915050565b60006020828403121561185d5761185c611512565b5b600082013567ffffffffffffffff81111561187b5761187a611517565b5b61188784828501611819565b91505092915050565b600081519050919050565b600082825260208201905092915050565b60005b838110156118ca5780820151818401526020810190506118af565b60008484015250505050565b60006118e182611890565b6118eb818561189b565b93506118fb8185602086016118ac565b6119048161170b565b840191505092915050565b6000602082019050818103600083015261192981846118d6565b905092915050565b7f4f6e6c79206f776e65722063616e2063616c6c20746869732066756e6374696f60008201527f6e00000000000000000000000000000000000000000000000000000000000000602082015250565b600061198d60218361189b565b915061199882611931565b604082019050919050565b600060208201905081810360008301526119bc81611980565b9050919050565b7f4e487b7100000000000000000000000000000000000000000000000000000000600052601160045260246000fd5b60006119fd826114b8565b9150611a08836114b8565b9250828201905080821115611a2057611a1f6119c3565b5b92915050565b7f50657263656e74616765732063616e6e6f742065786365656420313030000000600082015250565b6000611a5c601d8361189b565b9150611a6782611a26565b602082019050919050565b60006020820190508181036000830152611a8b81611a4f565b9050919050565b7f496e636f727265637420616d6f756e742073656e740000000000000000000000600082015250565b6000611ac860158361189b565b9150611ad382611a92565b602082019050919050565b60006020820190508181036000830152611af781611abb565b9050919050565b7f496e76616c696420646966666963756c74790000000000000000000000000000600082015250565b6000611b3460128361189b565b9150611b3f82611afe565b602082019050919050565b60006020820190508181036000830152611b6381611b27565b9050919050565b7f5468652073686f6f74696e672077696e646f772068617320616c72656164792060008201527f7061737365640000000000000000000000000000000000000000000000000000602082015250565b6000611bc660268361189b565b9150611bd182611b6a565b604082019050919050565b60006020820190508181036000830152611bf581611bb9565b9050919050565b7f4e487b7100000000000000000000000000000000000000000000000000000000600052601260045260246000fd5b6000611c36826114b8565b9150611c41836114b8565b925082611c5157611c50611bfc565b5b828204905092915050565b6000611c67826114b8565b9150611c72836114b8565b9250828203905081811115611c8a57611c896119c3565b5b92915050565b600081905092915050565b50565b6000611cab600083611c90565b9150611cb682611c9b565b600082019050919050565b6000611ccc82611c9e565b9150819050919050565b7f5072697a65207472616e73666572206661696c65640000000000000000000000600082015250565b6000611d0c60158361189b565b9150611d1782611cd6565b602082019050919050565b60006020820190508181036000830152611d3b81611cff565b9050919050565b6000611d4d826114b8565b91507fffffffffffffffffffffffffffffffffffffffffffffffffffffffffffffffff8203611d7f57611d7e6119c3565b5b600182019050919050565b7f54686520736f7572636520626c6f636b20686173206e6f74207061737365642060008201527f7965740000000000000000000000000000000000000000000000000000000000602082015250565b6000611de660238361189b565b9150611df182611d8a565b604082019050919050565b60006020820190508181036000830152611e1581611dd9565b9050919050565b7f4e6f207072697a6520706f6f6c20746f20636f6c6c6563740000000000000000600082015250565b6000611e5260188361189b565b9150611e5d82611e1c565b602082019050919050565b60006020820190508181036000830152611e8181611e45565b9050919050565b6000611e93826114b8565b9150611e9e836114b8565b9250828202611eac816114b8565b91508282048414831517611ec357611ec26119c3565b5b5092915050565b7f466565207472616e73666572206661696c656400000000000000000000000000600082015250565b6000611f0060138361189b565b9150611f0b82611eca565b602082019050919050565b60006020820190508181036000830152611f2f81611ef3565b9050919050565b6000608082019050611f4b60008301876114c2565b611f5860208301866114c2565b611f6560408301856114c2565b611f7260608301846114c2565b95945050505050565b7f557365726e616d652063616e6e6f7420626520656d7074790000000000000000600082015250565b6000611fb160188361189b565b9150611fbc82611f7b565b602082019050919050565b60006020820190508181036000830152611fe081611fa4565b9050919050565b7f557365726e616d6520697320746f6f206c6f6e6720286d61782033322063686160008201527f7273290000000000000000000000000000000000000000000000000000000000602082015250565b600061204360238361189b565b915061204e82611fe7565b604082019050919050565b6000602082019050818103600083015261207281612036565b9050919050565b7f4e487b7100000000000000000000000000000000000000000000000000000000600052602260045260246000fd5b600060028204905060018216806120c057607f821691505b6020821081036120d3576120d2612079565b5b50919050565b60008190508160005260206000209050919050565b60006020601f8301049050919050565b600082821b905092915050565b60006008830261213b7fffffffffffffffffffffffffffffffffffffffffffffffffffffffffffffffff826120fe565b61214586836120fe565b95508019841693508086168417925050509392505050565b6000819050919050565b600061218261217d612178846114b8565b61215d565b6114b8565b9050919050565b6000819050919050565b61219c83612167565b6121b06121a882612189565b84845461210b565b825550505050565b600090565b6121c56121b8565b6121d0818484612193565b505050565b5b818110156121f4576121e96000826121bd565b6001810190506121d6565b5050565b601f8211156122395761220a816120d9565b612213846120ee565b81016020851015612222578190505b61223661222e856120ee565b8301826121d5565b50505b505050565b600082821c905092915050565b600061225c6000198460080261223e565b1980831691505092915050565b6000612275838361224b565b9150826002028217905092915050565b61228e82611890565b67ffffffffffffffff8111156122a7576122a661171c565b5b6122b182546120a8565b6122bc8282856121f8565b600060209050601f8311600181146122ef57600084156122dd578287015190505b6122e78582612269565b86555061234f565b601f1984166122fd866120d9565b60005b8281101561232557848901518255600182019150602085019450602081019050612300565b86831015612342578489015161233e601f89168261224b565b8355505b6001600288020188555050505b50505050505056fea26469706673582212205849a9dfe6f24cab01333dccb7631827b7190929c459e87c9ce8cc76895c18be64736f6c63430008140033","opcodes":"PUSH1 0x80 PUSH1 0x40 MSTORE CALLVALUE DUP1 ISZERO PUSH2 0x10 JUMPI PUSH1 0x0 DUP1 REVERT JUMPDEST POP CALLER PUSH1 0x0 DUP1 PUSH2 0x100 EXP DUP2 SLOAD DUP2 PUSH20 0xFFFFFFFFFFFFFFFFFFFFFFFFFFFFFFFFFFFFFFFF MUL NOT AND SWAP1 DUP4 PUSH20 0xFFFFFFFFFFFFFFFFFFFFFFFFFFFFFFFFFFFFFFFF AND MUL OR SWAP1 SSTORE POP PUSH1 0x2D PUSH1 0x7 DUP2 SWAP1 SSTORE POP PUSH1 0x19 PUSH1 0x8 DUP2 SWAP1 SSTORE POP PUSH1 0xF PUSH1 0x9 DUP2 SWAP1 SSTORE POP PUSH8 0x16345785D8A0000 PUSH1 0x1 DUP2 SWAP1 SSTORE POP PUSH2 0x238D DUP1 PUSH2 0x87 PUSH1 0x0 CODECOPY PUSH1 0x0 RETURN INVALID PUSH1 0x80 PUSH1 0x40 MSTORE PUSH1 0x4 CALLDATASIZE LT PUSH2 0x166 JUMPI PUSH1 0x0 CALLDATALOAD PUSH1 0xE0 SHR DUP1 PUSH4 0x8B629E03 GT PUSH2 0xD1 JUMPI DUP1 PUSH4 0xE05FA215 GT PUSH2 0x8A JUMPI DUP1 PUSH4 0xEDDAD394 GT PUSH2 0x64 JUMPI DUP1 PUSH4 0xEDDAD394 EQ PUSH2 0x526 JUMPI DUP1 PUSH4 0xEE91877C EQ PUSH2 0x563 JUMPI DUP1 PUSH4 0xF0260660 EQ PUSH2 0x5A0 JUMPI DUP1 PUSH4 0xF0E3FFF8 EQ PUSH2 0x5CB JUMPI PUSH2 0x166 JUMP JUMPDEST DUP1 PUSH4 0xE05FA215 EQ PUSH2 0x4A7 JUMPI DUP1 PUSH4 0xE58A466F EQ PUSH2 0x4D2 JUMPI DUP1 PUSH4 0xED59313A EQ PUSH2 0x4FD JUMPI PUSH2 0x166 JUMP JUMPDEST DUP1 PUSH4 0x8B629E03 EQ PUSH2 0x395 JUMPI DUP1 PUSH4 0x8DA5CB5B EQ PUSH2 0x3C0 JUMPI DUP1 PUSH4 0xA1FC5541 EQ PUSH2 0x3EB JUMPI DUP1 PUSH4 0xA2B17288 EQ PUSH2 0x414 JUMPI DUP1 PUSH4 0xBF14AB19 EQ PUSH2 0x43F JUMPI DUP1 PUSH4 0xD4505E24 EQ PUSH2 0x46A JUMPI PUSH2 0x166 JUMP JUMPDEST DUP1 PUSH4 0x470762E9 GT PUSH2 0x123 JUMPI DUP1 PUSH4 0x470762E9 EQ PUSH2 0x27D JUMPI DUP1 PUSH4 0x4FD66EAE EQ PUSH2 0x2BA JUMPI DUP1 PUSH4 0x6EF25C3A EQ PUSH2 0x2F8 JUMPI DUP1 PUSH4 0x7996685C EQ PUSH2 0x323 JUMPI DUP1 PUSH4 0x7999B66B EQ PUSH2 0x34E JUMPI DUP1 PUSH4 0x7BC49A95 EQ PUSH2 0x379 JUMPI PUSH2 0x166 JUMP JUMPDEST DUP1 PUSH4 0x33A544E4 EQ PUSH2 0x16B JUMPI DUP1 PUSH4 0x353CF1FB EQ PUSH2 0x198 JUMPI DUP1 PUSH4 0x355D4AA3 EQ PUSH2 0x1C1 JUMPI DUP1 PUSH4 0x3BD4E251 EQ PUSH2 0x1FE JUMPI DUP1 PUSH4 0x3F0A9B02 EQ PUSH2 0x229 JUMPI DUP1 PUSH4 0x46860698 EQ PUSH2 0x254 JUMPI JUMPDEST PUSH1 0x0 DUP1 REVERT JUMPDEST CALLVALUE DUP1 ISZERO PUSH2 0x177 JUMPI PUSH1 0x0 DUP1 REVERT JUMPDEST POP PUSH2 0x180 PUSH2 0x608 JUMP JUMPDEST PUSH1 0x40 MLOAD PUSH2 0x18F SWAP4 SWAP3 SWAP2 SWAP1 PUSH2 0x14D1 JUMP JUMPDEST PUSH1 0x40 MLOAD DUP1 SWAP2 SUB SWAP1 RETURN JUMPDEST CALLVALUE DUP1 ISZERO PUSH2 0x1A4 JUMPI PUSH1 0x0 DUP1 REVERT JUMPDEST POP PUSH2 0x1BF PUSH1 0x4 DUP1 CALLDATASIZE SUB DUP2 ADD SWAP1 PUSH2 0x1BA SWAP2 SWAP1 PUSH2 0x1548 JUMP JUMPDEST PUSH2 0x621 JUMP JUMPDEST STOP JUMPDEST CALLVALUE DUP1 ISZERO PUSH2 0x1CD JUMPI PUSH1 0x0 DUP1 REVERT JUMPDEST POP PUSH2 0x1E8 PUSH1 0x4 DUP1 CALLDATASIZE SUB DUP2 ADD SWAP1 PUSH2 0x1E3 SWAP2 SWAP1 PUSH2 0x159B JUMP JUMPDEST PUSH2 0x723 JUMP JUMPDEST PUSH1 0x40 MLOAD PUSH2 0x1F5 SWAP2 SWAP1 PUSH2 0x15C8 JUMP JUMPDEST PUSH1 0x40 MLOAD DUP1 SWAP2 SUB SWAP1 RETURN JUMPDEST CALLVALUE DUP1 ISZERO PUSH2 0x20A JUMPI PUSH1 0x0 DUP1 REVERT JUMPDEST POP PUSH2 0x213 PUSH2 0x73B JUMP JUMPDEST PUSH1 0x40 MLOAD PUSH2 0x220 SWAP2 SWAP1 PUSH2 0x15C8 JUMP JUMPDEST PUSH1 0x40 MLOAD DUP1 SWAP2 SUB SWAP1 RETURN JUMPDEST CALLVALUE DUP1 ISZERO PUSH2 0x235 JUMPI PUSH1 0x0 DUP1 REVERT JUMPDEST POP PUSH2 0x23E PUSH2 0x741 JUMP JUMPDEST PUSH1 0x40 MLOAD PUSH2 0x24B SWAP2 SWAP1 PUSH2 0x15C8 JUMP JUMPDEST PUSH1 0x40 MLOAD DUP1 SWAP2 SUB SWAP1 RETURN JUMPDEST CALLVALUE DUP1 ISZERO PUSH2 0x260 JUMPI PUSH1 0x0 DUP1 REVERT JUMPDEST POP PUSH2 0x27B PUSH1 0x4 DUP1 CALLDATASIZE SUB DUP2 ADD SWAP1 PUSH2 0x276 SWAP2 SWAP1 PUSH2 0x159B JUMP JUMPDEST PUSH2 0x747 JUMP JUMPDEST STOP JUMPDEST CALLVALUE DUP1 ISZERO PUSH2 0x289 JUMPI PUSH1 0x0 DUP1 REVERT JUMPDEST POP PUSH2 0x2A4 PUSH1 0x4 DUP1 CALLDATASIZE SUB DUP2 ADD SWAP1 PUSH2 0x29F SWAP2 SWAP1 PUSH2 0x1641 JUMP JUMPDEST PUSH2 0x7DF JUMP JUMPDEST PUSH1 0x40 MLOAD PUSH2 0x2B1 SWAP2 SWAP1 PUSH2 0x15C8 JUMP JUMPDEST PUSH1 0x40 MLOAD DUP1 SWAP2 SUB SWAP1 RETURN JUMPDEST CALLVALUE DUP1 ISZERO PUSH2 0x2C6 JUMPI PUSH1 0x0 DUP1 REVERT JUMPDEST POP PUSH2 0x2E1 PUSH1 0x4 DUP1 CALLDATASIZE SUB DUP2 ADD SWAP1 PUSH2 0x2DC SWAP2 SWAP1 PUSH2 0x1641 JUMP JUMPDEST PUSH2 0x7F7 JUMP JUMPDEST PUSH1 0x40 MLOAD PUSH2 0x2EF SWAP3 SWAP2 SWAP1 PUSH2 0x166E JUMP JUMPDEST PUSH1 0x40 MLOAD DUP1 SWAP2 SUB SWAP1 RETURN JUMPDEST CALLVALUE DUP1 ISZERO PUSH2 0x304 JUMPI PUSH1 0x0 DUP1 REVERT JUMPDEST POP PUSH2 0x30D PUSH2 0x883 JUMP JUMPDEST PUSH1 0x40 MLOAD PUSH2 0x31A SWAP2 SWAP1 PUSH2 0x15C8 JUMP JUMPDEST PUSH1 0x40 MLOAD DUP1 SWAP2 SUB SWAP1 RETURN JUMPDEST CALLVALUE DUP1 ISZERO PUSH2 0x32F JUMPI PUSH1 0x0 DUP1 REVERT JUMPDEST POP PUSH2 0x338 PUSH2 0x889 JUMP JUMPDEST PUSH1 0x40 MLOAD PUSH2 0x345 SWAP2 SWAP1 PUSH2 0x15C8 JUMP JUMPDEST PUSH1 0x40 MLOAD DUP1 SWAP2 SUB SWAP1 RETURN JUMPDEST CALLVALUE DUP1 ISZERO PUSH2 0x35A JUMPI PUSH1 0x0 DUP1 REVERT JUMPDEST POP PUSH2 0x363 PUSH2 0x88F JUMP JUMPDEST PUSH1 0x40 MLOAD PUSH2 0x370 SWAP2 SWAP1 PUSH2 0x15C8 JUMP JUMPDEST PUSH1 0x40 MLOAD DUP1 SWAP2 SUB SWAP1 RETURN JUMPDEST PUSH2 0x393 PUSH1 0x4 DUP1 CALLDATASIZE SUB DUP2 ADD SWAP1 PUSH2 0x38E SWAP2 SWAP1 PUSH2 0x1697 JUMP JUMPDEST PUSH2 0x895 JUMP JUMPDEST STOP JUMPDEST CALLVALUE DUP1 ISZERO PUSH2 0x3A1 JUMPI PUSH1 0x0 DUP1 REVERT JUMPDEST POP PUSH2 0x3AA PUSH2 0xED7 JUMP JUMPDEST PUSH1 0x40 MLOAD PUSH2 0x3B7 SWAP2 SWAP1 PUSH2 0x15C8 JUMP JUMPDEST PUSH1 0x40 MLOAD DUP1 SWAP2 SUB SWAP1 RETURN JUMPDEST CALLVALUE DUP1 ISZERO PUSH2 0x3CC JUMPI PUSH1 0x0 DUP1 REVERT JUMPDEST POP PUSH2 0x3D5 PUSH2 0xEDD JUMP JUMPDEST PUSH1 0x40 MLOAD PUSH2 0x3E2 SWAP2 SWAP1 PUSH2 0x16E6 JUMP JUMPDEST PUSH1 0x40 MLOAD DUP1 SWAP2 SUB SWAP1 RETURN JUMPDEST CALLVALUE DUP1 ISZERO PUSH2 0x3F7 JUMPI PUSH1 0x0 DUP1 REVERT JUMPDEST POP PUSH2 0x412 PUSH1 0x4 DUP1 CALLDATASIZE SUB DUP2 ADD SWAP1 PUSH2 0x40D SWAP2 SWAP1 PUSH2 0x159B JUMP JUMPDEST PUSH2 0xF01 JUMP JUMPDEST STOP JUMPDEST CALLVALUE DUP1 ISZERO PUSH2 0x420 JUMPI PUSH1 0x0 DUP1 REVERT JUMPDEST POP PUSH2 0x429 PUSH2 0x122D JUMP JUMPDEST PUSH1 0x40 MLOAD PUSH2 0x436 SWAP2 SWAP1 PUSH2 0x15C8 JUMP JUMPDEST PUSH1 0x40 MLOAD DUP1 SWAP2 SUB SWAP1 RETURN JUMPDEST CALLVALUE DUP1 ISZERO PUSH2 0x44B JUMPI PUSH1 0x0 DUP1 REVERT JUMPDEST POP PUSH2 0x454 PUSH2 0x1233 JUMP JUMPDEST PUSH1 0x40 MLOAD PUSH2 0x461 SWAP2 SWAP1 PUSH2 0x15C8 JUMP JUMPDEST PUSH1 0x40 MLOAD DUP1 SWAP2 SUB SWAP1 RETURN JUMPDEST CALLVALUE DUP1 ISZERO PUSH2 0x476 JUMPI PUSH1 0x0 DUP1 REVERT JUMPDEST POP PUSH2 0x491 PUSH1 0x4 DUP1 CALLDATASIZE SUB DUP2 ADD SWAP1 PUSH2 0x48C SWAP2 SWAP1 PUSH2 0x159B JUMP JUMPDEST PUSH2 0x1239 JUMP JUMPDEST PUSH1 0x40 MLOAD PUSH2 0x49E SWAP2 SWAP1 PUSH2 0x15C8 JUMP JUMPDEST PUSH1 0x40 MLOAD DUP1 SWAP2 SUB SWAP1 RETURN JUMPDEST CALLVALUE DUP1 ISZERO PUSH2 0x4B3 JUMPI PUSH1 0x0 DUP1 REVERT JUMPDEST POP PUSH2 0x4BC PUSH2 0x126F JUMP JUMPDEST PUSH1 0x40 MLOAD PUSH2 0x4C9 SWAP2 SWAP1 PUSH2 0x16E6 JUMP JUMPDEST PUSH1 0x40 MLOAD DUP1 SWAP2 SUB SWAP1 RETURN JUMPDEST CALLVALUE DUP1 ISZERO PUSH2 0x4DE JUMPI PUSH1 0x0 DUP1 REVERT JUMPDEST POP PUSH2 0x4E7 PUSH2 0x1295 JUMP JUMPDEST PUSH1 0x40 MLOAD PUSH2 0x4F4 SWAP2 SWAP1 PUSH2 0x15C8 JUMP JUMPDEST PUSH1 0x40 MLOAD DUP1 SWAP2 SUB SWAP1 RETURN JUMPDEST CALLVALUE DUP1 ISZERO PUSH2 0x509 JUMPI PUSH1 0x0 DUP1 REVERT JUMPDEST POP PUSH2 0x524 PUSH1 0x4 DUP1 CALLDATASIZE SUB DUP2 ADD SWAP1 PUSH2 0x51F SWAP2 SWAP1 PUSH2 0x1847 JUMP JUMPDEST PUSH2 0x129B JUMP JUMPDEST STOP JUMPDEST CALLVALUE DUP1 ISZERO PUSH2 0x532 JUMPI PUSH1 0x0 DUP1 REVERT JUMPDEST POP PUSH2 0x54D PUSH1 0x4 DUP1 CALLDATASIZE SUB DUP2 ADD SWAP1 PUSH2 0x548 SWAP2 SWAP1 PUSH2 0x159B JUMP JUMPDEST PUSH2 0x13C2 JUMP JUMPDEST PUSH1 0x40 MLOAD PUSH2 0x55A SWAP2 SWAP1 PUSH2 0x15C8 JUMP JUMPDEST PUSH1 0x40 MLOAD DUP1 SWAP2 SUB SWAP1 RETURN JUMPDEST CALLVALUE DUP1 ISZERO PUSH2 0x56F JUMPI PUSH1 0x0 DUP1 REVERT JUMPDEST POP PUSH2 0x58A PUSH1 0x4 DUP1 CALLDATASIZE SUB DUP2 ADD SWAP1 PUSH2 0x585 SWAP2 SWAP1 PUSH2 0x1641 JUMP JUMPDEST PUSH2 0x13DA JUMP JUMPDEST PUSH1 0x40 MLOAD PUSH2 0x597 SWAP2 SWAP1 PUSH2 0x190F JUMP JUMPDEST PUSH1 0x40 MLOAD DUP1 SWAP2 SUB SWAP1 RETURN JUMPDEST CALLVALUE DUP1 ISZERO PUSH2 0x5AC JUMPI PUSH1 0x0 DUP1 REVERT JUMPDEST POP PUSH2 0x5B5 PUSH2 0x147A JUMP JUMPDEST PUSH1 0x40 MLOAD PUSH2 0x5C2 SWAP2 SWAP1 PUSH2 0x16E6 JUMP JUMPDEST PUSH1 0x40 MLOAD DUP1 SWAP2 SUB SWAP1 RETURN JUMPDEST CALLVALUE DUP1 ISZERO PUSH2 0x5D7 JUMPI PUSH1 0x0 DUP1 REVERT JUMPDEST POP PUSH2 0x5F2 PUSH1 0x4 DUP1 CALLDATASIZE SUB DUP2 ADD SWAP1 PUSH2 0x5ED SWAP2 SWAP1 PUSH2 0x1641 JUMP JUMPDEST PUSH2 0x14A0 JUMP JUMPDEST PUSH1 0x40 MLOAD PUSH2 0x5FF SWAP2 SWAP1 PUSH2 0x15C8 JUMP JUMPDEST PUSH1 0x40 MLOAD DUP1 SWAP2 SUB SWAP1 RETURN JUMPDEST PUSH1 0x0 DUP1 PUSH1 0x0 PUSH1 0x4 SLOAD PUSH1 0x5 SLOAD PUSH1 0x6 SLOAD SWAP3 POP SWAP3 POP SWAP3 POP SWAP1 SWAP2 SWAP3 JUMP JUMPDEST PUSH1 0x0 DUP1 SLOAD SWAP1 PUSH2 0x100 EXP SWAP1 DIV PUSH20 0xFFFFFFFFFFFFFFFFFFFFFFFFFFFFFFFFFFFFFFFF AND PUSH20 0xFFFFFFFFFFFFFFFFFFFFFFFFFFFFFFFFFFFFFFFF AND CALLER PUSH20 0xFFFFFFFFFFFFFFFFFFFFFFFFFFFFFFFFFFFFFFFF AND EQ PUSH2 0x6AF JUMPI PUSH1 0x40 MLOAD PUSH32 0x8C379A000000000000000000000000000000000000000000000000000000000 DUP2 MSTORE PUSH1 0x4 ADD PUSH2 0x6A6 SWAP1 PUSH2 0x19A3 JUMP JUMPDEST PUSH1 0x40 MLOAD DUP1 SWAP2 SUB SWAP1 REVERT JUMPDEST PUSH1 0x64 DUP2 DUP4 DUP6 PUSH2 0x6BE SWAP2 SWAP1 PUSH2 0x19F2 JUMP JUMPDEST PUSH2 0x6C8 SWAP2 SWAP1 PUSH2 0x19F2 JUMP JUMPDEST GT ISZERO PUSH2 0x709 JUMPI PUSH1 0x40 MLOAD PUSH32 0x8C379A000000000000000000000000000000000000000000000000000000000 DUP2 MSTORE PUSH1 0x4 ADD PUSH2 0x700 SWAP1 PUSH2 0x1A72 JUMP JUMPDEST PUSH1 0x40 MLOAD DUP1 SWAP2 SUB SWAP1 REVERT JUMPDEST DUP3 PUSH1 0x7 DUP2 SWAP1 SSTORE POP DUP2 PUSH1 0x8 DUP2 SWAP1 SSTORE POP DUP1 PUSH1 0x9 DUP2 SWAP1 SSTORE POP POP POP POP JUMP JUMPDEST PUSH1 0x2 PUSH1 0x20 MSTORE DUP1 PUSH1 0x0 MSTORE PUSH1 0x40 PUSH1 0x0 KECCAK256 PUSH1 0x0 SWAP2 POP SWAP1 POP SLOAD DUP2 JUMP JUMPDEST PUSH1 0x6 SLOAD DUP2 JUMP JUMPDEST PUSH1 0x8 SLOAD DUP2 JUMP JUMPDEST PUSH1 0x0 DUP1 SLOAD SWAP1 PUSH2 0x100 EXP SWAP1 DIV PUSH20 0xFFFFFFFFFFFFFFFFFFFFFFFFFFFFFFFFFFFFFFFF AND PUSH20 0xFFFFFFFFFFFFFFFFFFFFFFFFFFFFFFFFFFFFFFFF AND CALLER PUSH20 0xFFFFFFFFFFFFFFFFFFFFFFFFFFFFFFFFFFFFFFFF AND EQ PUSH2 0x7D5 JUMPI PUSH1 0x40 MLOAD PUSH32 0x8C379A000000000000000000000000000000000000000000000000000000000 DUP2 MSTORE PUSH1 0x4 ADD PUSH2 0x7CC SWAP1 PUSH2 0x19A3 JUMP JUMPDEST PUSH1 0x40 MLOAD DUP1 SWAP2 SUB SWAP1 REVERT JUMPDEST DUP1 PUSH1 0x1 DUP2 SWAP1 SSTORE POP POP JUMP JUMPDEST PUSH1 0xA PUSH1 0x20 MSTORE DUP1 PUSH1 0x0 MSTORE PUSH1 0x40 PUSH1 0x0 KECCAK256 PUSH1 0x0 SWAP2 POP SWAP1 POP SLOAD DUP2 JUMP JUMPDEST PUSH1 0x0 DUP1 PUSH1 0xA PUSH1 0x0 DUP5 PUSH20 0xFFFFFFFFFFFFFFFFFFFFFFFFFFFFFFFFFFFFFFFF AND PUSH20 0xFFFFFFFFFFFFFFFFFFFFFFFFFFFFFFFFFFFFFFFF AND DUP2 MSTORE PUSH1 0x20 ADD SWAP1 DUP2 MSTORE PUSH1 0x20 ADD PUSH1 0x0 KECCAK256 SLOAD PUSH1 0xB PUSH1 0x0 DUP6 PUSH20 0xFFFFFFFFFFFFFFFFFFFFFFFFFFFFFFFFFFFFFFFF AND PUSH20 0xFFFFFFFFFFFFFFFFFFFFFFFFFFFFFFFFFFFFFFFF AND DUP2 MSTORE PUSH1 0x20 ADD SWAP1 DUP2 MSTORE PUSH1 0x20 ADD PUSH1 0x0 KECCAK256 SLOAD SWAP2 POP SWAP2 POP SWAP2 POP SWAP2 JUMP JUMPDEST PUSH1 0x1 SLOAD DUP2 JUMP JUMPDEST PUSH1 0x7 SLOAD DUP2 JUMP JUMPDEST PUSH1 0xD SLOAD DUP2 JUMP JUMPDEST PUSH1 0x0 PUSH2 0x8A0 DUP4 PUSH2 0x1239 JUMP JUMPDEST SWAP1 POP DUP1 CALLVALUE EQ PUSH2 0x8E4 JUMPI PUSH1 0x40 MLOAD PUSH32 0x8C379A000000000000000000000000000000000000000000000000000000000 DUP2 MSTORE PUSH1 0x4 ADD PUSH2 0x8DB SWAP1 PUSH2 0x1ADE JUMP JUMPDEST PUSH1 0x40 MLOAD DUP1 SWAP2 SUB SWAP1 REVERT JUMPDEST PUSH1 0x1 DUP3 EQ DUP1 PUSH2 0x8F3 JUMPI POP PUSH1 0x5 DUP3 EQ JUMPDEST DUP1 PUSH2 0x8FE JUMPI POP PUSH1 0xA DUP3 EQ JUMPDEST PUSH2 0x93D JUMPI PUSH1 0x40 MLOAD PUSH32 0x8C379A000000000000000000000000000000000000000000000000000000000 DUP2 MSTORE PUSH1 0x4 ADD PUSH2 0x934 SWAP1 PUSH2 0x1B4A JUMP JUMPDEST PUSH1 0x40 MLOAD DUP1 SWAP2 SUB SWAP1 REVERT JUMPDEST DUP1 PUSH1 0xA PUSH1 0x0 CALLER PUSH20 0xFFFFFFFFFFFFFFFFFFFFFFFFFFFFFFFFFFFFFFFF AND PUSH20 0xFFFFFFFFFFFFFFFFFFFFFFFFFFFFFFFFFFFFFFFF AND DUP2 MSTORE PUSH1 0x20 ADD SWAP1 DUP2 MSTORE PUSH1 0x20 ADD PUSH1 0x0 KECCAK256 PUSH1 0x0 DUP3 DUP3 SLOAD PUSH2 0x98C SWAP2 SWAP1 PUSH2 0x19F2 JUMP JUMPDEST SWAP3 POP POP DUP2 SWAP1 SSTORE POP PUSH1 0xF SLOAD PUSH1 0xA PUSH1 0x0 CALLER PUSH20 0xFFFFFFFFFFFFFFFFFFFFFFFFFFFFFFFFFFFFFFFF AND PUSH20 0xFFFFFFFFFFFFFFFFFFFFFFFFFFFFFFFFFFFFFFFF AND DUP2 MSTORE PUSH1 0x20 ADD SWAP1 DUP2 MSTORE PUSH1 0x20 ADD PUSH1 0x0 KECCAK256 SLOAD GT ISZERO PUSH2 0xA64 JUMPI PUSH1 0xA PUSH1 0x0 CALLER PUSH20 0xFFFFFFFFFFFFFFFFFFFFFFFFFFFFFFFFFFFFFFFF AND PUSH20 0xFFFFFFFFFFFFFFFFFFFFFFFFFFFFFFFFFFFFFFFF AND DUP2 MSTORE PUSH1 0x20 ADD SWAP1 DUP2 MSTORE PUSH1 0x20 ADD PUSH1 0x0 KECCAK256 SLOAD PUSH1 0xF DUP2 SWAP1 SSTORE POP CALLER PUSH1 0xE PUSH1 0x0 PUSH2 0x100 EXP DUP2 SLOAD DUP2 PUSH20 0xFFFFFFFFFFFFFFFFFFFFFFFFFFFFFFFFFFFFFFFF MUL NOT AND SWAP1 DUP4 PUSH20 0xFFFFFFFFFFFFFFFFFFFFFFFFFFFFFFFFFFFFFFFF AND MUL OR SWAP1 SSTORE POP JUMPDEST PUSH1 0x0 DUP3 DUP5 PUSH2 0xA72 SWAP2 SWAP1 PUSH2 0x19F2 JUMP JUMPDEST SWAP1 POP DUP1 NUMBER LT PUSH2 0xAB6 JUMPI PUSH1 0x40 MLOAD PUSH32 0x8C379A000000000000000000000000000000000000000000000000000000000 DUP2 MSTORE PUSH1 0x4 ADD PUSH2 0xAAD SWAP1 PUSH2 0x1BDC JUMP JUMPDEST PUSH1 0x40 MLOAD DUP1 SWAP2 SUB SWAP1 REVERT JUMPDEST DUP4 NUMBER LT ISZERO DUP1 ISZERO PUSH2 0xAC5 JUMPI POP DUP1 NUMBER LT JUMPDEST ISZERO PUSH2 0xD5F JUMPI PUSH1 0x0 PUSH1 0x3 PUSH1 0x0 DUP7 DUP2 MSTORE PUSH1 0x20 ADD SWAP1 DUP2 MSTORE PUSH1 0x20 ADD PUSH1 0x0 KECCAK256 SLOAD SWAP1 POP PUSH1 0x0 DUP5 DUP3 PUSH2 0xAF0 SWAP2 SWAP1 PUSH2 0x1C2B JUMP JUMPDEST SWAP1 POP PUSH1 0x0 DUP2 DUP4 PUSH2 0xB00 SWAP2 SWAP1 PUSH2 0x1C5C JUMP JUMPDEST SWAP1 POP DUP1 PUSH1 0x3 PUSH1 0x0 DUP10 DUP2 MSTORE PUSH1 0x20 ADD SWAP1 DUP2 MSTORE PUSH1 0x20 ADD PUSH1 0x0 KECCAK256 DUP2 SWAP1 SSTORE POP PUSH1 0x0 PUSH1 0x2 PUSH1 0x0 DUP10 DUP2 MSTORE PUSH1 0x20 ADD SWAP1 DUP2 MSTORE PUSH1 0x20 ADD PUSH1 0x0 KECCAK256 DUP2 SWAP1 SSTORE POP PUSH1 0x0 DUP3 CALLVALUE PUSH2 0xB41 SWAP2 SWAP1 PUSH2 0x19F2 JUMP JUMPDEST SWAP1 POP PUSH1 0x1 DUP8 SUB PUSH2 0xB68 JUMPI PUSH1 0x4 SLOAD DUP2 PUSH2 0xB59 SWAP2 SWAP1 PUSH2 0x19F2 JUMP JUMPDEST SWAP1 POP PUSH1 0x0 PUSH1 0x4 DUP2 SWAP1 SSTORE POP PUSH2 0xBB0 JUMP JUMPDEST PUSH1 0x5 DUP8 SUB PUSH2 0xB8D JUMPI PUSH1 0x5 SLOAD DUP2 PUSH2 0xB7E SWAP2 SWAP1 PUSH2 0x19F2 JUMP JUMPDEST SWAP1 POP PUSH1 0x0 PUSH1 0x5 DUP2 SWAP1 SSTORE POP PUSH2 0xBAF JUMP JUMPDEST PUSH1 0xA DUP8 SUB PUSH2 0xBAE JUMPI PUSH1 0x6 SLOAD DUP2 PUSH2 0xBA3 SWAP2 SWAP1 PUSH2 0x19F2 JUMP JUMPDEST SWAP1 POP PUSH1 0x0 PUSH1 0x6 DUP2 SWAP1 SSTORE POP JUMPDEST JUMPDEST JUMPDEST PUSH1 0xD SLOAD DUP2 GT ISZERO PUSH2 0xC03 JUMPI DUP1 PUSH1 0xD DUP2 SWAP1 SSTORE POP CALLER PUSH1 0xC PUSH1 0x0 PUSH2 0x100 EXP DUP2 SLOAD DUP2 PUSH20 0xFFFFFFFFFFFFFFFFFFFFFFFFFFFFFFFFFFFFFFFF MUL NOT AND SWAP1 DUP4 PUSH20 0xFFFFFFFFFFFFFFFFFFFFFFFFFFFFFFFFFFFFFFFF AND MUL OR SWAP1 SSTORE POP JUMPDEST DUP1 PUSH1 0xB PUSH1 0x0 CALLER PUSH20 0xFFFFFFFFFFFFFFFFFFFFFFFFFFFFFFFFFFFFFFFF AND PUSH20 0xFFFFFFFFFFFFFFFFFFFFFFFFFFFFFFFFFFFFFFFF AND DUP2 MSTORE PUSH1 0x20 ADD SWAP1 DUP2 MSTORE PUSH1 0x20 ADD PUSH1 0x0 KECCAK256 PUSH1 0x0 DUP3 DUP3 SLOAD PUSH2 0xC52 SWAP2 SWAP1 PUSH2 0x19F2 JUMP JUMPDEST SWAP3 POP POP DUP2 SWAP1 SSTORE POP PUSH1 0x0 CALLER PUSH20 0xFFFFFFFFFFFFFFFFFFFFFFFFFFFFFFFFFFFFFFFF AND DUP3 PUSH1 0x40 MLOAD PUSH2 0xC7F SWAP1 PUSH2 0x1CC1 JUMP JUMPDEST PUSH1 0x0 PUSH1 0x40 MLOAD DUP1 DUP4 SUB DUP2 DUP6 DUP8 GAS CALL SWAP3 POP POP POP RETURNDATASIZE DUP1 PUSH1 0x0 DUP2 EQ PUSH2 0xCBC JUMPI PUSH1 0x40 MLOAD SWAP2 POP PUSH1 0x1F NOT PUSH1 0x3F RETURNDATASIZE ADD AND DUP3 ADD PUSH1 0x40 MSTORE RETURNDATASIZE DUP3 MSTORE RETURNDATASIZE PUSH1 0x0 PUSH1 0x20 DUP5 ADD RETURNDATACOPY PUSH2 0xCC1 JUMP JUMPDEST PUSH1 0x60 SWAP2 POP JUMPDEST POP POP SWAP1 POP DUP1 PUSH2 0xD05 JUMPI PUSH1 0x40 MLOAD PUSH32 0x8C379A000000000000000000000000000000000000000000000000000000000 DUP2 MSTORE PUSH1 0x4 ADD PUSH2 0xCFC SWAP1 PUSH2 0x1D22 JUMP JUMPDEST PUSH1 0x40 MLOAD DUP1 SWAP2 SUB SWAP1 REVERT JUMPDEST CALLER PUSH20 0xFFFFFFFFFFFFFFFFFFFFFFFFFFFFFFFFFFFFFFFF AND PUSH32 0x35C728D20144D84EAB692166B0831C2A9D71D052E243DA8C28D1E7BC8EE00BDF NUMBER DUP5 PUSH1 0x40 MLOAD PUSH2 0xD4D SWAP3 SWAP2 SWAP1 PUSH2 0x166E JUMP JUMPDEST PUSH1 0x40 MLOAD DUP1 SWAP2 SUB SWAP1 LOG2 POP POP POP POP POP PUSH2 0xE03 JUMP JUMPDEST CALLVALUE PUSH1 0x3 PUSH1 0x0 DUP7 DUP2 MSTORE PUSH1 0x20 ADD SWAP1 DUP2 MSTORE PUSH1 0x20 ADD PUSH1 0x0 KECCAK256 PUSH1 0x0 DUP3 DUP3 SLOAD PUSH2 0xD82 SWAP2 SWAP1 PUSH2 0x19F2 JUMP JUMPDEST SWAP3 POP POP DUP2 SWAP1 SSTORE POP PUSH1 0x2 PUSH1 0x0 DUP6 DUP2 MSTORE PUSH1 0x20 ADD SWAP1 DUP2 MSTORE PUSH1 0x20 ADD PUSH1 0x0 KECCAK256 PUSH1 0x0 DUP2 SLOAD DUP1 SWAP3 SWAP2 SWAP1 PUSH2 0xDAD SWAP1 PUSH2 0x1D42 JUMP JUMPDEST SWAP2 SWAP1 POP SSTORE POP CALLER PUSH20 0xFFFFFFFFFFFFFFFFFFFFFFFFFFFFFFFFFFFFFFFF AND PUSH32 0x48AA3C793329FC37C8FADC61B042500F3D29307C71AA9B001A8234A3E01269E8 DUP6 CALLVALUE PUSH1 0x40 MLOAD PUSH2 0xDFA SWAP3 SWAP2 SWAP1 PUSH2 0x166E JUMP JUMPDEST PUSH1 0x40 MLOAD DUP1 SWAP2 SUB SWAP1 LOG2 JUMPDEST CALLER PUSH20 0xFFFFFFFFFFFFFFFFFFFFFFFFFFFFFFFFFFFFFFFF AND PUSH32 0x518FE7501685A267757FA6CD1DB666952EE3E655B901BA1EB1CD4E50CFDC8588 PUSH1 0xA PUSH1 0x0 CALLER PUSH20 0xFFFFFFFFFFFFFFFFFFFFFFFFFFFFFFFFFFFFFFFF AND PUSH20 0xFFFFFFFFFFFFFFFFFFFFFFFFFFFFFFFFFFFFFFFF AND DUP2 MSTORE PUSH1 0x20 ADD SWAP1 DUP2 MSTORE PUSH1 0x20 ADD PUSH1 0x0 KECCAK256 SLOAD PUSH1 0xB PUSH1 0x0 CALLER PUSH20 0xFFFFFFFFFFFFFFFFFFFFFFFFFFFFFFFFFFFFFFFF AND PUSH20 0xFFFFFFFFFFFFFFFFFFFFFFFFFFFFFFFFFFFFFFFF AND DUP2 MSTORE PUSH1 0x20 ADD SWAP1 DUP2 MSTORE PUSH1 0x20 ADD PUSH1 0x0 KECCAK256 SLOAD PUSH1 0x40 MLOAD PUSH2 0xEC9 SWAP3 SWAP2 SWAP1 PUSH2 0x166E JUMP JUMPDEST PUSH1 0x40 MLOAD DUP1 SWAP2 SUB SWAP1 LOG2 POP POP POP POP JUMP JUMPDEST PUSH1 0x4 SLOAD DUP2 JUMP JUMPDEST PUSH1 0x0 DUP1 SLOAD SWAP1 PUSH2 0x100 EXP SWAP1 DIV PUSH20 0xFFFFFFFFFFFFFFFFFFFFFFFFFFFFFFFFFFFFFFFF AND DUP2 JUMP JUMPDEST PUSH1 0x0 DUP1 SLOAD SWAP1 PUSH2 0x100 EXP SWAP1 DIV PUSH20 0xFFFFFFFFFFFFFFFFFFFFFFFFFFFFFFFFFFFFFFFF AND PUSH20 0xFFFFFFFFFFFFFFFFFFFFFFFFFFFFFFFFFFFFFFFF AND CALLER PUSH20 0xFFFFFFFFFFFFFFFFFFFFFFFFFFFFFFFFFFFFFFFF AND EQ PUSH2 0xF8F JUMPI PUSH1 0x40 MLOAD PUSH32 0x8C379A000000000000000000000000000000000000000000000000000000000 DUP2 MSTORE PUSH1 0x4 ADD PUSH2 0xF86 SWAP1 PUSH2 0x19A3 JUMP JUMPDEST PUSH1 0x40 MLOAD DUP1 SWAP2 SUB SWAP1 REVERT JUMPDEST DUP1 NUMBER GT PUSH2 0xFD1 JUMPI PUSH1 0x40 MLOAD PUSH32 0x8C379A000000000000000000000000000000000000000000000000000000000 DUP2 MSTORE PUSH1 0x4 ADD PUSH2 0xFC8 SWAP1 PUSH2 0x1DFC JUMP JUMPDEST PUSH1 0x40 MLOAD DUP1 SWAP2 SUB SWAP1 REVERT JUMPDEST PUSH1 0x0 PUSH1 0x3 PUSH1 0x0 DUP4 DUP2 MSTORE PUSH1 0x20 ADD SWAP1 DUP2 MSTORE PUSH1 0x20 ADD PUSH1 0x0 KECCAK256 SLOAD SWAP1 POP PUSH1 0x0 DUP2 GT PUSH2 0x102C JUMPI PUSH1 0x40 MLOAD PUSH32 0x8C379A000000000000000000000000000000000000000000000000000000000 DUP2 MSTORE PUSH1 0x4 ADD PUSH2 0x1023 SWAP1 PUSH2 0x1E68 JUMP JUMPDEST PUSH1 0x40 MLOAD DUP1 SWAP2 SUB SWAP1 REVERT JUMPDEST PUSH1 0x0 PUSH1 0x3 PUSH1 0x0 DUP5 DUP2 MSTORE PUSH1 0x20 ADD SWAP1 DUP2 MSTORE PUSH1 0x20 ADD PUSH1 0x0 KECCAK256 DUP2 SWAP1 SSTORE POP PUSH1 0x0 PUSH1 0x64 PUSH1 0x7 SLOAD DUP4 PUSH2 0x1057 SWAP2 SWAP1 PUSH2 0x1E88 JUMP JUMPDEST PUSH2 0x1061 SWAP2 SWAP1 PUSH2 0x1C2B JUMP JUMPDEST SWAP1 POP PUSH1 0x0 PUSH1 0x64 PUSH1 0x8 SLOAD DUP5 PUSH2 0x1075 SWAP2 SWAP1 PUSH2 0x1E88 JUMP JUMPDEST PUSH2 0x107F SWAP2 SWAP1 PUSH2 0x1C2B JUMP JUMPDEST SWAP1 POP PUSH1 0x0 PUSH1 0x64 PUSH1 0x9 SLOAD DUP6 PUSH2 0x1093 SWAP2 SWAP1 PUSH2 0x1E88 JUMP JUMPDEST PUSH2 0x109D SWAP2 SWAP1 PUSH2 0x1C2B JUMP JUMPDEST SWAP1 POP PUSH1 0x0 DUP2 DUP4 DUP6 DUP8 PUSH2 0x10AF SWAP2 SWAP1 PUSH2 0x1C5C JUMP JUMPDEST PUSH2 0x10B9 SWAP2 SWAP1 PUSH2 0x1C5C JUMP JUMPDEST PUSH2 0x10C3 SWAP2 SWAP1 PUSH2 0x1C5C JUMP JUMPDEST SWAP1 POP DUP4 PUSH1 0x4 PUSH1 0x0 DUP3 DUP3 SLOAD PUSH2 0x10D7 SWAP2 SWAP1 PUSH2 0x19F2 JUMP JUMPDEST SWAP3 POP POP DUP2 SWAP1 SSTORE POP DUP3 PUSH1 0x5 PUSH1 0x0 DUP3 DUP3 SLOAD PUSH2 0x10F0 SWAP2 SWAP1 PUSH2 0x19F2 JUMP JUMPDEST SWAP3 POP POP DUP2 SWAP1 SSTORE POP DUP2 PUSH1 0x6 PUSH1 0x0 DUP3 DUP3 SLOAD PUSH2 0x1109 SWAP2 SWAP1 PUSH2 0x19F2 JUMP JUMPDEST SWAP3 POP POP DUP2 SWAP1 SSTORE POP PUSH1 0x0 DUP2 GT ISZERO PUSH2 0x11E8 JUMPI PUSH1 0x0 DUP1 PUSH1 0x0 SWAP1 SLOAD SWAP1 PUSH2 0x100 EXP SWAP1 DIV PUSH20 0xFFFFFFFFFFFFFFFFFFFFFFFFFFFFFFFFFFFFFFFF AND PUSH20 0xFFFFFFFFFFFFFFFFFFFFFFFFFFFFFFFFFFFFFFFF AND DUP3 PUSH1 0x40 MLOAD PUSH2 0x1160 SWAP1 PUSH2 0x1CC1 JUMP JUMPDEST PUSH1 0x0 PUSH1 0x40 MLOAD DUP1 DUP4 SUB DUP2 DUP6 DUP8 GAS CALL SWAP3 POP POP POP RETURNDATASIZE DUP1 PUSH1 0x0 DUP2 EQ PUSH2 0x119D JUMPI PUSH1 0x40 MLOAD SWAP2 POP PUSH1 0x1F NOT PUSH1 0x3F RETURNDATASIZE ADD AND DUP3 ADD PUSH1 0x40 MSTORE RETURNDATASIZE DUP3 MSTORE RETURNDATASIZE PUSH1 0x0 PUSH1 0x20 DUP5 ADD RETURNDATACOPY PUSH2 0x11A2 JUMP JUMPDEST PUSH1 0x60 SWAP2 POP JUMPDEST POP POP SWAP1 POP DUP1 PUSH2 0x11E6 JUMPI PUSH1 0x40 MLOAD PUSH32 0x8C379A000000000000000000000000000000000000000000000000000000000 DUP2 MSTORE PUSH1 0x4 ADD PUSH2 0x11DD SWAP1 PUSH2 0x1F16 JUMP JUMPDEST PUSH1 0x40 MLOAD DUP1 SWAP2 SUB SWAP1 REVERT JUMPDEST POP JUMPDEST PUSH32 0x2CA0DE4EE0337A8A2EEE81F43538BF24BF4D8866771CCD3E7722C7C2ACEA7678 DUP6 DUP6 DUP6 DUP6 PUSH1 0x40 MLOAD PUSH2 0x121D SWAP5 SWAP4 SWAP3 SWAP2 SWAP1 PUSH2 0x1F36 JUMP JUMPDEST PUSH1 0x40 MLOAD DUP1 SWAP2 SUB SWAP1 LOG1 POP POP POP POP POP POP JUMP JUMPDEST PUSH1 0x5 SLOAD DUP2 JUMP JUMPDEST PUSH1 0x9 SLOAD DUP2 JUMP JUMPDEST PUSH1 0x0 PUSH1 0x1 PUSH1 0x2 PUSH1 0x0 DUP5 DUP2 MSTORE PUSH1 0x20 ADD SWAP1 DUP2 MSTORE PUSH1 0x20 ADD PUSH1 0x0 KECCAK256 SLOAD PUSH2 0x125B SWAP2 SWAP1 PUSH2 0x19F2 JUMP JUMPDEST PUSH1 0x1 SLOAD PUSH2 0x1268 SWAP2 SWAP1 PUSH2 0x1E88 JUMP JUMPDEST SWAP1 POP SWAP2 SWAP1 POP JUMP JUMPDEST PUSH1 0xE PUSH1 0x0 SWAP1 SLOAD SWAP1 PUSH2 0x100 EXP SWAP1 DIV PUSH20 0xFFFFFFFFFFFFFFFFFFFFFFFFFFFFFFFFFFFFFFFF AND DUP2 JUMP JUMPDEST PUSH1 0xF SLOAD DUP2 JUMP JUMPDEST PUSH1 0x0 DUP2 MLOAD GT PUSH2 0x12DF JUMPI PUSH1 0x40 MLOAD PUSH32 0x8C379A000000000000000000000000000000000000000000000000000000000 DUP2 MSTORE PUSH1 0x4 ADD PUSH2 0x12D6 SWAP1 PUSH2 0x1FC7 JUMP JUMPDEST PUSH1 0x40 MLOAD DUP1 SWAP2 SUB SWAP1 REVERT JUMPDEST PUSH1 0x20 DUP2 MLOAD GT ISZERO PUSH2 0x1324 JUMPI PUSH1 0x40 MLOAD PUSH32 0x8C379A000000000000000000000000000000000000000000000000000000000 DUP2 MSTORE PUSH1 0x4 ADD PUSH2 0x131B SWAP1 PUSH2 0x2059 JUMP JUMPDEST PUSH1 0x40 MLOAD DUP1 SWAP2 SUB SWAP1 REVERT JUMPDEST DUP1 PUSH1 0x10 PUSH1 0x0 CALLER PUSH20 0xFFFFFFFFFFFFFFFFFFFFFFFFFFFFFFFFFFFFFFFF AND PUSH20 0xFFFFFFFFFFFFFFFFFFFFFFFFFFFFFFFFFFFFFFFF AND DUP2 MSTORE PUSH1 0x20 ADD SWAP1 DUP2 MSTORE PUSH1 0x20 ADD PUSH1 0x0 KECCAK256 SWAP1 DUP2 PUSH2 0x1370 SWAP2 SWAP1 PUSH2 0x2285 JUMP JUMPDEST POP CALLER PUSH20 0xFFFFFFFFFFFFFFFFFFFFFFFFFFFFFFFFFFFFFFFF AND PUSH32 0x74D8E560D2E870C35B35DC882DF2A5C96E2BF1CDB5EF6DD2F9CB433C8D048853 DUP3 PUSH1 0x40 MLOAD PUSH2 0x13B7 SWAP2 SWAP1 PUSH2 0x190F JUMP JUMPDEST PUSH1 0x40 MLOAD DUP1 SWAP2 SUB SWAP1 LOG2 POP JUMP JUMPDEST PUSH1 0x3 PUSH1 0x20 MSTORE DUP1 PUSH1 0x0 MSTORE PUSH1 0x40 PUSH1 0x0 KECCAK256 PUSH1 0x0 SWAP2 POP SWAP1 POP SLOAD DUP2 JUMP JUMPDEST PUSH1 0x10 PUSH1 0x20 MSTORE DUP1 PUSH1 0x0 MSTORE PUSH1 0x40 PUSH1 0x0 KECCAK256 PUSH1 0x0 SWAP2 POP SWAP1 POP DUP1 SLOAD PUSH2 0x13F9 SWAP1 PUSH2 0x20A8 JUMP JUMPDEST DUP1 PUSH1 0x1F ADD PUSH1 0x20 DUP1 SWAP2 DIV MUL PUSH1 0x20 ADD PUSH1 0x40 MLOAD SWAP1 DUP2 ADD PUSH1 0x40 MSTORE DUP1 SWAP3 SWAP2 SWAP1 DUP2 DUP2 MSTORE PUSH1 0x20 ADD DUP3 DUP1 SLOAD PUSH2 0x1425 SWAP1 PUSH2 0x20A8 JUMP JUMPDEST DUP1 ISZERO PUSH2 0x1472 JUMPI DUP1 PUSH1 0x1F LT PUSH2 0x1447 JUMPI PUSH2 0x100 DUP1 DUP4 SLOAD DIV MUL DUP4 MSTORE SWAP2 PUSH1 0x20 ADD SWAP2 PUSH2 0x1472 JUMP JUMPDEST DUP3 ADD SWAP2 SWAP1 PUSH1 0x0 MSTORE PUSH1 0x20 PUSH1 0x0 KECCAK256 SWAP1 JUMPDEST DUP2 SLOAD DUP2 MSTORE SWAP1 PUSH1 0x1 ADD SWAP1 PUSH1 0x20 ADD DUP1 DUP4 GT PUSH2 0x1455 JUMPI DUP3 SWAP1 SUB PUSH1 0x1F AND DUP3 ADD SWAP2 JUMPDEST POP POP POP POP POP DUP2 JUMP JUMPDEST PUSH1 0xC PUSH1 0x0 SWAP1 SLOAD SWAP1 PUSH2 0x100 EXP SWAP1 DIV PUSH20 0xFFFFFFFFFFFFFFFFFFFFFFFFFFFFFFFFFFFFFFFF AND DUP2 JUMP JUMPDEST PUSH1 0xB PUSH1 0x20 MSTORE DUP1 PUSH1 0x0 MSTORE PUSH1 0x40 PUSH1 0x0 KECCAK256 PUSH1 0x0 SWAP2 POP SWAP1 POP SLOAD DUP2 JUMP JUMPDEST PUSH1 0x0 DUP2 SWAP1 POP SWAP2 SWAP1 POP JUMP JUMPDEST PUSH2 0x14CB DUP2 PUSH2 0x14B8 JUMP JUMPDEST DUP3 MSTORE POP POP JUMP JUMPDEST PUSH1 0x0 PUSH1 0x60 DUP3 ADD SWAP1 POP PUSH2 0x14E6 PUSH1 0x0 DUP4 ADD DUP7 PUSH2 0x14C2 JUMP JUMPDEST PUSH2 0x14F3 PUSH1 0x20 DUP4 ADD DUP6 PUSH2 0x14C2 JUMP JUMPDEST PUSH2 0x1500 PUSH1 0x40 DUP4 ADD DUP5 PUSH2 0x14C2 JUMP JUMPDEST SWAP5 SWAP4 POP POP POP POP JUMP JUMPDEST PUSH1 0x0 PUSH1 0x40 MLOAD SWAP1 POP SWAP1 JUMP JUMPDEST PUSH1 0x0 DUP1 REVERT JUMPDEST PUSH1 0x0 DUP1 REVERT JUMPDEST PUSH2 0x1525 DUP2 PUSH2 0x14B8 JUMP JUMPDEST DUP2 EQ PUSH2 0x1530 JUMPI PUSH1 0x0 DUP1 REVERT JUMPDEST POP JUMP JUMPDEST PUSH1 0x0 DUP2 CALLDATALOAD SWAP1 POP PUSH2 0x1542 DUP2 PUSH2 0x151C JUMP JUMPDEST SWAP3 SWAP2 POP POP JUMP JUMPDEST PUSH1 0x0 DUP1 PUSH1 0x0 PUSH1 0x60 DUP5 DUP7 SUB SLT ISZERO PUSH2 0x1561 JUMPI PUSH2 0x1560 PUSH2 0x1512 JUMP JUMPDEST JUMPDEST PUSH1 0x0 PUSH2 0x156F DUP7 DUP3 DUP8 ADD PUSH2 0x1533 JUMP JUMPDEST SWAP4 POP POP PUSH1 0x20 PUSH2 0x1580 DUP7 DUP3 DUP8 ADD PUSH2 0x1533 JUMP JUMPDEST SWAP3 POP POP PUSH1 0x40 PUSH2 0x1591 DUP7 DUP3 DUP8 ADD PUSH2 0x1533 JUMP JUMPDEST SWAP2 POP POP SWAP3 POP SWAP3 POP SWAP3 JUMP JUMPDEST PUSH1 0x0 PUSH1 0x20 DUP3 DUP5 SUB SLT ISZERO PUSH2 0x15B1 JUMPI PUSH2 0x15B0 PUSH2 0x1512 JUMP JUMPDEST JUMPDEST PUSH1 0x0 PUSH2 0x15BF DUP5 DUP3 DUP6 ADD PUSH2 0x1533 JUMP JUMPDEST SWAP2 POP POP SWAP3 SWAP2 POP POP JUMP JUMPDEST PUSH1 0x0 PUSH1 0x20 DUP3 ADD SWAP1 POP PUSH2 0x15DD PUSH1 0x0 DUP4 ADD DUP5 PUSH2 0x14C2 JUMP JUMPDEST SWAP3 SWAP2 POP POP JUMP JUMPDEST PUSH1 0x0 PUSH20 0xFFFFFFFFFFFFFFFFFFFFFFFFFFFFFFFFFFFFFFFF DUP3 AND SWAP1 POP SWAP2 SWAP1 POP JUMP JUMPDEST PUSH1 0x0 PUSH2 0x160E DUP3 PUSH2 0x15E3 JUMP JUMPDEST SWAP1 POP SWAP2 SWAP1 POP JUMP JUMPDEST PUSH2 0x161E DUP2 PUSH2 0x1603 JUMP JUMPDEST DUP2 EQ PUSH2 0x1629 JUMPI PUSH1 0x0 DUP1 REVERT JUMPDEST POP JUMP JUMPDEST PUSH1 0x0 DUP2 CALLDATALOAD SWAP1 POP PUSH2 0x163B DUP2 PUSH2 0x1615 JUMP JUMPDEST SWAP3 SWAP2 POP POP JUMP JUMPDEST PUSH1 0x0 PUSH1 0x20 DUP3 DUP5 SUB SLT ISZERO PUSH2 0x1657 JUMPI PUSH2 0x1656 PUSH2 0x1512 JUMP JUMPDEST JUMPDEST PUSH1 0x0 PUSH2 0x1665 DUP5 DUP3 DUP6 ADD PUSH2 0x162C JUMP JUMPDEST SWAP2 POP POP SWAP3 SWAP2 POP POP JUMP JUMPDEST PUSH1 0x0 PUSH1 0x40 DUP3 ADD SWAP1 POP PUSH2 0x1683 PUSH1 0x0 DUP4 ADD DUP6 PUSH2 0x14C2 JUMP JUMPDEST PUSH2 0x1690 PUSH1 0x20 DUP4 ADD DUP5 PUSH2 0x14C2 JUMP JUMPDEST SWAP4 SWAP3 POP POP POP JUMP JUMPDEST PUSH1 0x0 DUP1 PUSH1 0x40 DUP4 DUP6 SUB SLT ISZERO PUSH2 0x16AE JUMPI PUSH2 0x16AD PUSH2 0x1512 JUMP JUMPDEST JUMPDEST PUSH1 0x0 PUSH2 0x16BC DUP6 DUP3 DUP7 ADD PUSH2 0x1533 JUMP JUMPDEST SWAP3 POP POP PUSH1 0x20 PUSH2 0x16CD DUP6 DUP3 DUP7 ADD PUSH2 0x1533 JUMP JUMPDEST SWAP2 POP POP SWAP3 POP SWAP3 SWAP1 POP JUMP JUMPDEST PUSH2 0x16E0 DUP2 PUSH2 0x1603 JUMP JUMPDEST DUP3 MSTORE POP POP JUMP JUMPDEST PUSH1 0x0 PUSH1 0x20 DUP3 ADD SWAP1 POP PUSH2 0x16FB PUSH1 0x0 DUP4 ADD DUP5 PUSH2 0x16D7 JUMP JUMPDEST SWAP3 SWAP2 POP POP JUMP JUMPDEST PUSH1 0x0 DUP1 REVERT JUMPDEST PUSH1 0x0 DUP1 REVERT JUMPDEST PUSH1 0x0 PUSH1 0x1F NOT PUSH1 0x1F DUP4 ADD AND SWAP1 POP SWAP2 SWAP1 POP JUMP JUMPDEST PUSH32 0x4E487B7100000000000000000000000000000000000000000000000000000000 PUSH1 0x0 MSTORE PUSH1 0x41 PUSH1 0x4 MSTORE PUSH1 0x24 PUSH1 0x0 REVERT JUMPDEST PUSH2 0x1754 DUP3 PUSH2 0x170B JUMP JUMPDEST DUP2 ADD DUP2 DUP2 LT PUSH8 0xFFFFFFFFFFFFFFFF DUP3 GT OR ISZERO PUSH2 0x1773 JUMPI PUSH2 0x1772 PUSH2 0x171C JUMP JUMPDEST JUMPDEST DUP1 PUSH1 0x40 MSTORE POP POP POP JUMP JUMPDEST PUSH1 0x0 PUSH2 0x1786 PUSH2 0x1508 JUMP JUMPDEST SWAP1 POP PUSH2 0x1792 DUP3 DUP3 PUSH2 0x174B JUMP JUMPDEST SWAP2 SWAP1 POP JUMP JUMPDEST PUSH1 0x0 PUSH8 0xFFFFFFFFFFFFFFFF DUP3 GT ISZERO PUSH2 0x17B2 JUMPI PUSH2 0x17B1 PUSH2 0x171C JUMP JUMPDEST JUMPDEST PUSH2 0x17BB DUP3 PUSH2 0x170B JUMP JUMPDEST SWAP1 POP PUSH1 0x20 DUP2 ADD SWAP1 POP SWAP2 SWAP1 POP JUMP JUMPDEST DUP3 DUP2 DUP4 CALLDATACOPY PUSH1 0x0 DUP4 DUP4 ADD MSTORE POP POP POP JUMP JUMPDEST PUSH1 0x0 PUSH2 0x17EA PUSH2 0x17E5 DUP5 PUSH2 0x1797 JUMP JUMPDEST PUSH2 0x177C JUMP JUMPDEST SWAP1 POP DUP3 DUP2 MSTORE PUSH1 0x20 DUP2 ADD DUP5 DUP5 DUP5 ADD GT ISZERO PUSH2 0x1806 JUMPI PUSH2 0x1805 PUSH2 0x1706 JUMP JUMPDEST JUMPDEST PUSH2 0x1811 DUP5 DUP3 DUP6 PUSH2 0x17C8 JUMP JUMPDEST POP SWAP4 SWAP3 POP POP POP JUMP JUMPDEST PUSH1 0x0 DUP3 PUSH1 0x1F DUP4 ADD SLT PUSH2 0x182E JUMPI PUSH2 0x182D PUSH2 0x1701 JUMP JUMPDEST JUMPDEST DUP2 CALLDATALOAD PUSH2 0x183E DUP5 DUP3 PUSH1 0x20 DUP7 ADD PUSH2 0x17D7 JUMP JUMPDEST SWAP2 POP POP SWAP3 SWAP2 POP POP JUMP JUMPDEST PUSH1 0x0 PUSH1 0x20 DUP3 DUP5 SUB SLT ISZERO PUSH2 0x185D JUMPI PUSH2 0x185C PUSH2 0x1512 JUMP JUMPDEST JUMPDEST PUSH1 0x0 DUP3 ADD CALLDATALOAD PUSH8 0xFFFFFFFFFFFFFFFF DUP2 GT ISZERO PUSH2 0x187B JUMPI PUSH2 0x187A PUSH2 0x1517 JUMP JUMPDEST JUMPDEST PUSH2 0x1887 DUP5 DUP3 DUP6 ADD PUSH2 0x1819 JUMP JUMPDEST SWAP2 POP POP SWAP3 SWAP2 POP POP JUMP JUMPDEST PUSH1 0x0 DUP2 MLOAD SWAP1 POP SWAP2 SWAP1 POP JUMP JUMPDEST PUSH1 0x0 DUP3 DUP3 MSTORE PUSH1 0x20 DUP3 ADD SWAP1 POP SWAP3 SWAP2 POP POP JUMP JUMPDEST PUSH1 0x0 JUMPDEST DUP4 DUP2 LT ISZERO PUSH2 0x18CA JUMPI DUP1 DUP3 ADD MLOAD DUP2 DUP5 ADD MSTORE PUSH1 0x20 DUP2 ADD SWAP1 POP PUSH2 0x18AF JUMP JUMPDEST PUSH1 0x0 DUP5 DUP5 ADD MSTORE POP POP POP POP JUMP JUMPDEST PUSH1 0x0 PUSH2 0x18E1 DUP3 PUSH2 0x1890 JUMP JUMPDEST PUSH2 0x18EB DUP2 DUP6 PUSH2 0x189B JUMP JUMPDEST SWAP4 POP PUSH2 0x18FB DUP2 DUP6 PUSH1 0x20 DUP7 ADD PUSH2 0x18AC JUMP JUMPDEST PUSH2 0x1904 DUP2 PUSH2 0x170B JUMP JUMPDEST DUP5 ADD SWAP2 POP POP SWAP3 SWAP2 POP POP JUMP JUMPDEST PUSH1 0x0 PUSH1 0x20 DUP3 ADD SWAP1 POP DUP2 DUP2 SUB PUSH1 0x0 DUP4 ADD MSTORE PUSH2 0x1929 DUP2 DUP5 PUSH2 0x18D6 JUMP JUMPDEST SWAP1 POP SWAP3 SWAP2 POP POP JUMP JUMPDEST PUSH32 0x4F6E6C79206F776E65722063616E2063616C6C20746869732066756E6374696F PUSH1 0x0 DUP3 ADD MSTORE PUSH32 0x6E00000000000000000000000000000000000000000000000000000000000000 PUSH1 0x20 DUP3 ADD MSTORE POP JUMP JUMPDEST PUSH1 0x0 PUSH2 0x198D PUSH1 0x21 DUP4 PUSH2 0x189B JUMP JUMPDEST SWAP2 POP PUSH2 0x1998 DUP3 PUSH2 0x1931 JUMP JUMPDEST PUSH1 0x40 DUP3 ADD SWAP1 POP SWAP2 SWAP1 POP JUMP JUMPDEST PUSH1 0x0 PUSH1 0x20 DUP3 ADD SWAP1 POP DUP2 DUP2 SUB PUSH1 0x0 DUP4 ADD MSTORE PUSH2 0x19BC DUP2 PUSH2 0x1980 JUMP JUMPDEST SWAP1 POP SWAP2 SWAP1 POP JUMP JUMPDEST PUSH32 0x4E487B7100000000000000000000000000000000000000000000000000000000 PUSH1 0x0 MSTORE PUSH1 0x11 PUSH1 0x4 MSTORE PUSH1 0x24 PUSH1 0x0 REVERT JUMPDEST PUSH1 0x0 PUSH2 0x19FD DUP3 PUSH2 0x14B8 JUMP JUMPDEST SWAP2 POP PUSH2 0x1A08 DUP4 PUSH2 0x14B8 JUMP JUMPDEST SWAP3 POP DUP3 DUP3 ADD SWAP1 POP DUP1 DUP3 GT ISZERO PUSH2 0x1A20 JUMPI PUSH2 0x1A1F PUSH2 0x19C3 JUMP JUMPDEST JUMPDEST SWAP3 SWAP2 POP POP JUMP JUMPDEST PUSH32 0x50657263656E74616765732063616E6E6F742065786365656420313030000000 PUSH1 0x0 DUP3 ADD MSTORE POP JUMP JUMPDEST PUSH1 0x0 PUSH2 0x1A5C PUSH1 0x1D DUP4 PUSH2 0x189B JUMP JUMPDEST SWAP2 POP PUSH2 0x1A67 DUP3 PUSH2 0x1A26 JUMP JUMPDEST PUSH1 0x20 DUP3 ADD SWAP1 POP SWAP2 SWAP1 POP JUMP JUMPDEST PUSH1 0x0 PUSH1 0x20 DUP3 ADD SWAP1 POP DUP2 DUP2 SUB PUSH1 0x0 DUP4 ADD MSTORE PUSH2 0x1A8B DUP2 PUSH2 0x1A4F JUMP JUMPDEST SWAP1 POP SWAP2 SWAP1 POP JUMP JUMPDEST PUSH32 0x496E636F727265637420616D6F756E742073656E740000000000000000000000 PUSH1 0x0 DUP3 ADD MSTORE POP JUMP JUMPDEST PUSH1 0x0 PUSH2 0x1AC8 PUSH1 0x15 DUP4 PUSH2 0x189B JUMP JUMPDEST SWAP2 POP PUSH2 0x1AD3 DUP3 PUSH2 0x1A92 JUMP JUMPDEST PUSH1 0x20 DUP3 ADD SWAP1 POP SWAP2 SWAP1 POP JUMP JUMPDEST PUSH1 0x0 PUSH1 0x20 DUP3 ADD SWAP1 POP DUP2 DUP2 SUB PUSH1 0x0 DUP4 ADD MSTORE PUSH2 0x1AF7 DUP2 PUSH2 0x1ABB JUMP JUMPDEST SWAP1 POP SWAP2 SWAP1 POP JUMP JUMPDEST PUSH32 0x496E76616C696420646966666963756C74790000000000000000000000000000 PUSH1 0x0 DUP3 ADD MSTORE POP JUMP JUMPDEST PUSH1 0x0 PUSH2 0x1B34 PUSH1 0x12 DUP4 PUSH2 0x189B JUMP JUMPDEST SWAP2 POP PUSH2 0x1B3F DUP3 PUSH2 0x1AFE JUMP JUMPDEST PUSH1 0x20 DUP3 ADD SWAP1 POP SWAP2 SWAP1 POP JUMP JUMPDEST PUSH1 0x0 PUSH1 0x20 DUP3 ADD SWAP1 POP DUP2 DUP2 SUB PUSH1 0x0 DUP4 ADD MSTORE PUSH2 0x1B63 DUP2 PUSH2 0x1B27 JUMP JUMPDEST SWAP1 POP SWAP2 SWAP1 POP JUMP JUMPDEST PUSH32 0x5468652073686F6F74696E672077696E646F772068617320616C726561647920 PUSH1 0x0 DUP3 ADD MSTORE PUSH32 0x7061737365640000000000000000000000000000000000000000000000000000 PUSH1 0x20 DUP3 ADD MSTORE POP JUMP JUMPDEST PUSH1 0x0 PUSH2 0x1BC6 PUSH1 0x26 DUP4 PUSH2 0x189B JUMP JUMPDEST SWAP2 POP PUSH2 0x1BD1 DUP3 PUSH2 0x1B6A JUMP JUMPDEST PUSH1 0x40 DUP3 ADD SWAP1 POP SWAP2 SWAP1 POP JUMP JUMPDEST PUSH1 0x0 PUSH1 0x20 DUP3 ADD SWAP1 POP DUP2 DUP2 SUB PUSH1 0x0 DUP4 ADD MSTORE PUSH2 0x1BF5 DUP2 PUSH2 0x1BB9 JUMP JUMPDEST SWAP1 POP SWAP2 SWAP1 POP JUMP JUMPDEST PUSH32 0x4E487B7100000000000000000000000000000000000000000000000000000000 PUSH1 0x0 MSTORE PUSH1 0x12 PUSH1 0x4 MSTORE PUSH1 0x24 PUSH1 0x0 REVERT JUMPDEST PUSH1 0x0 PUSH2 0x1C36 DUP3 PUSH2 0x14B8 JUMP JUMPDEST SWAP2 POP PUSH2 0x1C41 DUP4 PUSH2 0x14B8 JUMP JUMPDEST SWAP3 POP DUP3 PUSH2 0x1C51 JUMPI PUSH2 0x1C50 PUSH2 0x1BFC JUMP JUMPDEST JUMPDEST DUP3 DUP3 DIV SWAP1 POP SWAP3 SWAP2 POP POP JUMP JUMPDEST PUSH1 0x0 PUSH2 0x1C67 DUP3 PUSH2 0x14B8 JUMP JUMPDEST SWAP2 POP PUSH2 0x1C72 DUP4 PUSH2 0x14B8 JUMP JUMPDEST SWAP3 POP DUP3 DUP3 SUB SWAP1 POP DUP2 DUP2 GT ISZERO PUSH2 0x1C8A JUMPI PUSH2 0x1C89 PUSH2 0x19C3 JUMP JUMPDEST JUMPDEST SWAP3 SWAP2 POP POP JUMP JUMPDEST PUSH1 0x0 DUP2 SWAP1 POP SWAP3 SWAP2 POP POP JUMP JUMPDEST POP JUMP JUMPDEST PUSH1 0x0 PUSH2 0x1CAB PUSH1 0x0 DUP4 PUSH2 0x1C90 JUMP JUMPDEST SWAP2 POP PUSH2 0x1CB6 DUP3 PUSH2 0x1C9B JUMP JUMPDEST PUSH1 0x0 DUP3 ADD SWAP1 POP SWAP2 SWAP1 POP JUMP JUMPDEST PUSH1 0x0 PUSH2 0x1CCC DUP3 PUSH2 0x1C9E JUMP JUMPDEST SWAP2 POP DUP2 SWAP1 POP SWAP2 SWAP1 POP JUMP JUMPDEST PUSH32 0x5072697A65207472616E73666572206661696C65640000000000000000000000 PUSH1 0x0 DUP3 ADD MSTORE POP JUMP JUMPDEST PUSH1 0x0 PUSH2 0x1D0C PUSH1 0x15 DUP4 PUSH2 0x189B JUMP JUMPDEST SWAP2 POP PUSH2 0x1D17 DUP3 PUSH2 0x1CD6 JUMP JUMPDEST PUSH1 0x20 DUP3 ADD SWAP1 POP SWAP2 SWAP1 POP JUMP JUMPDEST PUSH1 0x0 PUSH1 0x20 DUP3 ADD SWAP1 POP DUP2 DUP2 SUB PUSH1 0x0 DUP4 ADD MSTORE PUSH2 0x1D3B DUP2 PUSH2 0x1CFF JUMP JUMPDEST SWAP1 POP SWAP2 SWAP1 POP JUMP JUMPDEST PUSH1 0x0 PUSH2 0x1D4D DUP3 PUSH2 0x14B8 JUMP JUMPDEST SWAP2 POP PUSH32 0xFFFFFFFFFFFFFFFFFFFFFFFFFFFFFFFFFFFFFFFFFFFFFFFFFFFFFFFFFFFFFFFF DUP3 SUB PUSH2 0x1D7F JUMPI PUSH2 0x1D7E PUSH2 0x19C3 JUMP JUMPDEST JUMPDEST PUSH1 0x1 DUP3 ADD SWAP1 POP SWAP2 SWAP1 POP JUMP JUMPDEST PUSH32 0x54686520736F7572636520626C6F636B20686173206E6F742070617373656420 PUSH1 0x0 DUP3 ADD MSTORE PUSH32 0x7965740000000000000000000000000000000000000000000000000000000000 PUSH1 0x20 DUP3 ADD MSTORE POP JUMP JUMPDEST PUSH1 0x0 PUSH2 0x1DE6 PUSH1 0x23 DUP4 PUSH2 0x189B JUMP JUMPDEST SWAP2 POP PUSH2 0x1DF1 DUP3 PUSH2 0x1D8A JUMP JUMPDEST PUSH1 0x40 DUP3 ADD SWAP1 POP SWAP2 SWAP1 POP JUMP JUMPDEST PUSH1 0x0 PUSH1 0x20 DUP3 ADD SWAP1 POP DUP2 DUP2 SUB PUSH1 0x0 DUP4 ADD MSTORE PUSH2 0x1E15 DUP2 PUSH2 0x1DD9 JUMP JUMPDEST SWAP1 POP SWAP2 SWAP1 POP JUMP JUMPDEST PUSH32 0x4E6F207072697A6520706F6F6C20746F20636F6C6C6563740000000000000000 PUSH1 0x0 DUP3 ADD MSTORE POP JUMP JUMPDEST PUSH1 0x0 PUSH2 0x1E52 PUSH1 0x18 DUP4 PUSH2 0x189B JUMP JUMPDEST SWAP2 POP PUSH2 0x1E5D DUP3 PUSH2 0x1E1C JUMP JUMPDEST PUSH1 0x20 DUP3 ADD SWAP1 POP SWAP2 SWAP1 POP JUMP JUMPDEST PUSH1 0x0 PUSH1 0x20 DUP3 ADD SWAP1 POP DUP2 DUP2 SUB PUSH1 0x0 DUP4 ADD MSTORE PUSH2 0x1E81 DUP2 PUSH2 0x1E45 JUMP JUMPDEST SWAP1 POP SWAP2 SWAP1 POP JUMP JUMPDEST PUSH1 0x0 PUSH2 0x1E93 DUP3 PUSH2 0x14B8 JUMP JUMPDEST SWAP2 POP PUSH2 0x1E9E DUP4 PUSH2 0x14B8 JUMP JUMPDEST SWAP3 POP DUP3 DUP3 MUL PUSH2 0x1EAC DUP2 PUSH2 0x14B8 JUMP JUMPDEST SWAP2 POP DUP3 DUP3 DIV DUP5 EQ DUP4 ISZERO OR PUSH2 0x1EC3 JUMPI PUSH2 0x1EC2 PUSH2 0x19C3 JUMP JUMPDEST JUMPDEST POP SWAP3 SWAP2 POP POP JUMP JUMPDEST PUSH32 0x466565207472616E73666572206661696C656400000000000000000000000000 PUSH1 0x0 DUP3 ADD MSTORE POP JUMP JUMPDEST PUSH1 0x0 PUSH2 0x1F00 PUSH1 0x13 DUP4 PUSH2 0x189B JUMP JUMPDEST SWAP2 POP PUSH2 0x1F0B DUP3 PUSH2 0x1ECA JUMP JUMPDEST PUSH1 0x20 DUP3 ADD SWAP1 POP SWAP2 SWAP1 POP JUMP JUMPDEST PUSH1 0x0 PUSH1 0x20 DUP3 ADD SWAP1 POP DUP2 DUP2 SUB PUSH1 0x0 DUP4 ADD MSTORE PUSH2 0x1F2F DUP2 PUSH2 0x1EF3 JUMP JUMPDEST SWAP1 POP SWAP2 SWAP1 POP JUMP JUMPDEST PUSH1 0x0 PUSH1 0x80 DUP3 ADD SWAP1 POP PUSH2 0x1F4B PUSH1 0x0 DUP4 ADD DUP8 PUSH2 0x14C2 JUMP JUMPDEST PUSH2 0x1F58 PUSH1 0x20 DUP4 ADD DUP7 PUSH2 0x14C2 JUMP JUMPDEST PUSH2 0x1F65 PUSH1 0x40 DUP4 ADD DUP6 PUSH2 0x14C2 JUMP JUMPDEST PUSH2 0x1F72 PUSH1 0x60 DUP4 ADD DUP5 PUSH2 0x14C2 JUMP JUMPDEST SWAP6 SWAP5 POP POP POP POP POP JUMP JUMPDEST PUSH32 0x557365726E616D652063616E6E6F7420626520656D7074790000000000000000 PUSH1 0x0 DUP3 ADD MSTORE POP JUMP JUMPDEST PUSH1 0x0 PUSH2 0x1FB1 PUSH1 0x18 DUP4 PUSH2 0x189B JUMP JUMPDEST SWAP2 POP PUSH2 0x1FBC DUP3 PUSH2 0x1F7B JUMP JUMPDEST PUSH1 0x20 DUP3 ADD SWAP1 POP SWAP2 SWAP1 POP JUMP JUMPDEST PUSH1 0x0 PUSH1 0x20 DUP3 ADD SWAP1 POP DUP2 DUP2 SUB PUSH1 0x0 DUP4 ADD MSTORE PUSH2 0x1FE0 DUP2 PUSH2 0x1FA4 JUMP JUMPDEST SWAP1 POP SWAP2 SWAP1 POP JUMP JUMPDEST PUSH32 0x557365726E616D6520697320746F6F206C6F6E6720286D617820333220636861 PUSH1 0x0 DUP3 ADD MSTORE PUSH32 0x7273290000000000000000000000000000000000000000000000000000000000 PUSH1 0x20 DUP3 ADD MSTORE POP JUMP JUMPDEST PUSH1 0x0 PUSH2 0x2043 PUSH1 0x23 DUP4 PUSH2 0x189B JUMP JUMPDEST SWAP2 POP PUSH2 0x204E DUP3 PUSH2 0x1FE7 JUMP JUMPDEST PUSH1 0x40 DUP3 ADD SWAP1 POP SWAP2 SWAP1 POP JUMP JUMPDEST PUSH1 0x0 PUSH1 0x20 DUP3 ADD SWAP1 POP DUP2 DUP2 SUB PUSH1 0x0 DUP4 ADD MSTORE PUSH2 0x2072 DUP2 PUSH2 0x2036 JUMP JUMPDEST SWAP1 POP SWAP2 SWAP1 POP JUMP JUMPDEST PUSH32 0x4E487B7100000000000000000000000000000000000000000000000000000000 PUSH1 0x0 MSTORE PUSH1 0x22 PUSH1 0x4 MSTORE PUSH1 0x24 PUSH1 0x0 REVERT JUMPDEST PUSH1 0x0 PUSH1 0x2 DUP3 DIV SWAP1 POP PUSH1 0x1 DUP3 AND DUP1 PUSH2 0x20C0 JUMPI PUSH1 0x7F DUP3 AND SWAP2 POP JUMPDEST PUSH1 0x20 DUP3 LT DUP2 SUB PUSH2 0x20D3 JUMPI PUSH2 0x20D2 PUSH2 0x2079 JUMP JUMPDEST JUMPDEST POP SWAP2 SWAP1 POP JUMP JUMPDEST PUSH1 0x0 DUP2 SWAP1 POP DUP2 PUSH1 0x0 MSTORE PUSH1 0x20 PUSH1 0x0 KECCAK256 SWAP1 POP SWAP2 SWAP1 POP JUMP JUMPDEST PUSH1 0x0 PUSH1 0x20 PUSH1 0x1F DUP4 ADD DIV SWAP1 POP SWAP2 SWAP1 POP JUMP JUMPDEST PUSH1 0x0 DUP3 DUP3 SHL SWAP1 POP SWAP3 SWAP2 POP POP JUMP JUMPDEST PUSH1 0x0 PUSH1 0x8 DUP4 MUL PUSH2 0x213B PUSH32 0xFFFFFFFFFFFFFFFFFFFFFFFFFFFFFFFFFFFFFFFFFFFFFFFFFFFFFFFFFFFFFFFF DUP3 PUSH2 0x20FE JUMP JUMPDEST PUSH2 0x2145 DUP7 DUP4 PUSH2 0x20FE JUMP JUMPDEST SWAP6 POP DUP1 NOT DUP5 AND SWAP4 POP DUP1 DUP7 AND DUP5 OR SWAP3 POP POP POP SWAP4 SWAP3 POP POP POP JUMP JUMPDEST PUSH1 0x0 DUP2 SWAP1 POP SWAP2 SWAP1 POP JUMP JUMPDEST PUSH1 0x0 PUSH2 0x2182 PUSH2 0x217D PUSH2 0x2178 DUP5 PUSH2 0x14B8 JUMP JUMPDEST PUSH2 0x215D JUMP JUMPDEST PUSH2 0x14B8 JUMP JUMPDEST SWAP1 POP SWAP2 SWAP1 POP JUMP JUMPDEST PUSH1 0x0 DUP2 SWAP1 POP SWAP2 SWAP1 POP JUMP JUMPDEST PUSH2 0x219C DUP4 PUSH2 0x2167 JUMP JUMPDEST PUSH2 0x21B0 PUSH2 0x21A8 DUP3 PUSH2 0x2189 JUMP JUMPDEST DUP5 DUP5 SLOAD PUSH2 0x210B JUMP JUMPDEST DUP3 SSTORE POP POP POP POP JUMP JUMPDEST PUSH1 0x0 SWAP1 JUMP JUMPDEST PUSH2 0x21C5 PUSH2 0x21B8 JUMP JUMPDEST PUSH2 0x21D0 DUP2 DUP5 DUP5 PUSH2 0x2193 JUMP JUMPDEST POP POP POP JUMP JUMPDEST JUMPDEST DUP2 DUP2 LT ISZERO PUSH2 0x21F4 JUMPI PUSH2 0x21E9 PUSH1 0x0 DUP3 PUSH2 0x21BD JUMP JUMPDEST PUSH1 0x1 DUP2 ADD SWAP1 POP PUSH2 0x21D6 JUMP JUMPDEST POP POP JUMP JUMPDEST PUSH1 0x1F DUP3 GT ISZERO PUSH2 0x2239 JUMPI PUSH2 0x220A DUP2 PUSH2 0x20D9 JUMP JUMPDEST PUSH2 0x2213 DUP5 PUSH2 0x20EE JUMP JUMPDEST DUP2 ADD PUSH1 0x20 DUP6 LT ISZERO PUSH2 0x2222 JUMPI DUP2 SWAP1 POP JUMPDEST PUSH2 0x2236 PUSH2 0x222E DUP6 PUSH2 0x20EE JUMP JUMPDEST DUP4 ADD DUP3 PUSH2 0x21D5 JUMP JUMPDEST POP POP JUMPDEST POP POP POP JUMP JUMPDEST PUSH1 0x0 DUP3 DUP3 SHR SWAP1 POP SWAP3 SWAP2 POP POP JUMP JUMPDEST PUSH1 0x0 PUSH2 0x225C PUSH1 0x0 NOT DUP5 PUSH1 0x8 MUL PUSH2 0x223E JUMP JUMPDEST NOT DUP1 DUP4 AND SWAP2 POP POP SWAP3 SWAP2 POP POP JUMP JUMPDEST PUSH1 0x0 PUSH2 0x2275 DUP4 DUP4 PUSH2 0x224B JUMP JUMPDEST SWAP2 POP DUP3 PUSH1 0x2 MUL DUP3 OR SWAP1 POP SWAP3 SWAP2 POP POP JUMP JUMPDEST PUSH2 0x228E DUP3 PUSH2 0x1890 JUMP JUMPDEST PUSH8 0xFFFFFFFFFFFFFFFF DUP2 GT ISZERO PUSH2 0x22A7 JUMPI PUSH2 0x22A6 PUSH2 0x171C JUMP JUMPDEST JUMPDEST PUSH2 0x22B1 DUP3 SLOAD PUSH2 0x20A8 JUMP JUMPDEST PUSH2 0x22BC DUP3 DUP3 DUP6 PUSH2 0x21F8 JUMP JUMPDEST PUSH1 0x0 PUSH1 0x20 SWAP1 POP PUSH1 0x1F DUP4 GT PUSH1 0x1 DUP2 EQ PUSH2 0x22EF JUMPI PUSH1 0x0 DUP5 ISZERO PUSH2 0x22DD JUMPI DUP3 DUP8 ADD MLOAD SWAP1 POP JUMPDEST PUSH2 0x22E7 DUP6 DUP3 PUSH2 0x2269 JUMP JUMPDEST DUP7 SSTORE POP PUSH2 0x234F JUMP JUMPDEST PUSH1 0x1F NOT DUP5 AND PUSH2 0x22FD DUP7 PUSH2 0x20D9 JUMP JUMPDEST PUSH1 0x0 JUMPDEST DUP3 DUP2 LT ISZERO PUSH2 0x2325 JUMPI DUP5 DUP10 ADD MLOAD DUP3 SSTORE PUSH1 0x1 DUP3 ADD SWAP2 POP PUSH1 0x20 DUP6 ADD SWAP5 POP PUSH1 0x20 DUP2 ADD SWAP1 POP PUSH2 0x2300 JUMP JUMPDEST DUP7 DUP4 LT ISZERO PUSH2 0x2342 JUMPI DUP5 DUP10 ADD MLOAD PUSH2 0x233E PUSH1 0x1F DUP10 AND DUP3 PUSH2 0x224B JUMP JUMPDEST DUP4 SSTORE POP JUMPDEST PUSH1 0x1 PUSH1 0x2 DUP9 MUL ADD DUP9 SSTORE POP POP POP JUMPDEST POP POP POP POP POP POP JUMP INVALID LOG2 PUSH5 0x6970667358 0x22 SLT KECCAK256 PC 0x49 0xA9 0xDF 0xE6 CALLCODE 0x4C 0xAB ADD CALLER RETURNDATASIZE 0xCC 0xB7 PUSH4 0x1827B719 MULMOD 0x29 0xC4 MSIZE 0xE8 PUSH29 0x9CE8CC76895C18BE64736F6C6343000814003300000000000000000000 "},"methodIdentifiers":{"attemptCounters(uint256)":"355d4aa3","baseFee()":"6ef25c3a","biggestBettor()":"e05fa215","biggestPrize()":"7999b66b","biggestTotalWagered()":"e58a466f","biggestWinner()":"f0260660","bonusPoolEasy()":"3bd4e251","bonusPoolHard()":"8b629e03","bonusPoolNormal()":"a2b17288","collectAndDistributeStalePool(uint256)":"a1fc5541","getBonusPools()":"33a544e4","getCurrentEntryFee(uint256)":"d4505e24","getPlayerStats(address)":"4fd66eae","owner()":"8da5cb5b","percentEasy()":"bf14ab19","percentHard()":"7996685c","percentNormal()":"3f0a9b02","play(uint256,uint256)":"7bc49a95","prizePools(uint256)":"eddad394","setBaseFee(uint256)":"46860698","setDistributionPercentages(uint256,uint256,uint256)":"353cf1fb","setUsername(string)":"ed59313a","totalWagered(address)":"470762e9","totalWon(address)":"f0e3fff8","usernames(address)":"ee91877c"}}}}}