{
  "_format": "hh-sol-artifact-1",
  "contractName": "BlockSniper",
  "sourceName": "contracts/BlockSniper.sol",
  "abi": [
    {
      "inputs": [],
      "stateMutability": "nonpayable",
      "type": "constructor"
    },
    {
      "anonymous": false,
      "inputs": [
        {
          "indexed": false,
          "internalType": "uint256",
          "name": "totalAmount",
          "type": "uint256"
        },
        {
          "indexed": false,
          "internalType": "uint256",
          "name": "hardShare",
          "type": "uint256"
        },
        {
          "indexed": false,
          "internalType": "uint256",
          "name": "normalShare",
          "type": "uint256"
        },
        {
          "indexed": false,
          "internalType": "uint256",
          "name": "easyShare",
          "type": "uint256"
        }
      ],
      "name": "BonusPoolsFunded",
      "type": "event"
    },
    {
      "anonymous": false,
      "inputs": [
        {
          "indexed": true,
          "internalType": "address",
          "name": "player",
          "type": "address"
        },
        {
          "indexed": false,
          "internalType": "uint256",
          "name": "totalWagered",
          "type": "uint256"
        },
        {
          "indexed": false,
          "internalType": "uint256",
          "name": "totalWon",
          "type": "uint256"
        }
      ],
      "name": "PlayerStatsUpdated",
      "type": "event"
    },
    {
      "anonymous": false,
      "inputs": [
        {
          "indexed": true,
          "internalType": "address",
          "name": "player",
          "type": "address"
        },
        {
          "indexed": false,
          "internalType": "uint256",
          "name": "startBlock",
          "type": "uint256"
        },
        {
          "indexed": false,
          "internalType": "uint256",
          "name": "entryFee",
          "type": "uint256"
        }
      ],
      "name": "SnipeMiss",
      "type": "event"
    },
    {
      "anonymous": false,
      "inputs": [
        {
          "indexed": true,
          "internalType": "address",
          "name": "winner",
          "type": "address"
        },
        {
          "indexed": false,
          "internalType": "uint256",
          "name": "blockHit",
          "type": "uint256"
        },
        {
          "indexed": false,
          "internalType": "uint256",
          "name": "prize",
          "type": "uint256"
        }
      ],
      "name": "SnipeSuccess",
      "type": "event"
    },
    {
      "anonymous": false,
      "inputs": [
        {
          "indexed": true,
          "internalType": "address",
          "name": "player",
          "type": "address"
        },
        {
          "indexed": false,
          "internalType": "string",
          "name": "newUsername",
          "type": "string"
        }
      ],
      "name": "UsernameSet",
      "type": "event"
    },
    {
      "inputs": [
        {
          "internalType": "uint256",
          "name": "",
          "type": "uint256"
        }
      ],
      "name": "attemptCounters",
      "outputs": [
        {
          "internalType": "uint256",
          "name": "",
          "type": "uint256"
        }
      ],
      "stateMutability": "view",
      "type": "function"
    },
    {
      "inputs": [],
      "name": "baseFee",
      "outputs": [
        {
          "internalType": "uint256",
          "name": "",
          "type": "uint256"
        }
      ],
      "stateMutability": "view",
      "type": "function"
    },
    {
      "inputs": [],
      "name": "biggestBettor",
      "outputs": [
        {
          "internalType": "address",
          "name": "",
          "type": "address"
        }
      ],
      "stateMutability": "view",
      "type": "function"
    },
    {
      "inputs": [],
      "name": "biggestPrize",
      "outputs": [
        {
          "internalType": "uint256",
          "name": "",
          "type": "uint256"
        }
      ],
      "stateMutability": "view",
      "type": "function"
    },
    {
      "inputs": [],
      "name": "biggestTotalWagered",
      "outputs": [
        {
          "internalType": "uint256",
          "name": "",
          "type": "uint256"
        }
      ],
      "stateMutability": "view",
      "type": "function"
    },
    {
      "inputs": [],
      "name": "biggestWinner",
      "outputs": [
        {
          "internalType": "address",
          "name": "",
          "type": "address"
        }
      ],
      "stateMutability": "view",
      "type": "function"
    },
    {
      "inputs": [],
      "name": "bonusPoolEasy",
      "outputs": [
        {
          "internalType": "uint256",
          "name": "",
          "type": "uint256"
        }
      ],
      "stateMutability": "view",
      "type": "function"
    },
    {
      "inputs": [],
      "name": "bonusPoolHard",
      "outputs": [
        {
          "internalType": "uint256",
          "name": "",
          "type": "uint256"
        }
      ],
      "stateMutability": "view",
      "type": "function"
    },
    {
      "inputs": [],
      "name": "bonusPoolNormal",
      "outputs": [
        {
          "internalType": "uint256",
          "name": "",
          "type": "uint256"
        }
      ],
      "stateMutability": "view",
      "type": "function"
    },
    {
      "inputs": [
        {
          "internalType": "uint256",
          "name": "_fromBlock",
          "type": "uint256"
        }
      ],
      "name": "collectAndDistributeStalePool",
      "outputs": [],
      "stateMutability": "nonpayable",
      "type": "function"
    },
    {
      "inputs": [],
      "name": "getBonusPools",
      "outputs": [
        {
          "internalType": "uint256",
          "name": "hard",
          "type": "uint256"
        },
        {
          "internalType": "uint256",
          "name": "normal",
          "type": "uint256"
        },
        {
          "internalType": "uint256",
          "name": "easy",
          "type": "uint256"
        }
      ],
      "stateMutability": "view",
      "type": "function"
    },
    {
      "inputs": [
        {
          "internalType": "uint256",
          "name": "_startBlock",
          "type": "uint256"
        }
      ],
      "name": "getCurrentEntryFee",
      "outputs": [
        {
          "internalType": "uint256",
          "name": "",
          "type": "uint256"
        }
      ],
      "stateMutability": "view",
      "type": "function"
    },
    {
      "inputs": [
        {
          "internalType": "address",
          "name": "player",
          "type": "address"
        }
      ],
      "name": "getPlayerStats",
      "outputs": [
        {
          "internalType": "uint256",
          "name": "wagered",
          "type": "uint256"
        },
        {
          "internalType": "uint256",
          "name": "won",
          "type": "uint256"
        }
      ],
      "stateMutability": "view",
      "type": "function"
    },
    {
      "inputs": [],
      "name": "owner",
      "outputs": [
        {
          "internalType": "address",
          "name": "",
          "type": "address"
        }
      ],
      "stateMutability": "view",
      "type": "function"
    },
    {
      "inputs": [],
      "name": "percentEasy",
      "outputs": [
        {
          "internalType": "uint256",
          "name": "",
          "type": "uint256"
        }
      ],
      "stateMutability": "view",
      "type": "function"
    },
    {
      "inputs": [],
      "name": "percentHard",
      "outputs": [
        {
          "internalType": "uint256",
          "name": "",
          "type": "uint256"
        }
      ],
      "stateMutability": "view",
      "type": "function"
    },
    {
      "inputs": [],
      "name": "percentNormal",
      "outputs": [
        {
          "internalType": "uint256",
          "name": "",
          "type": "uint256"
        }
      ],
      "stateMutability": "view",
      "type": "function"
    },
    {
      "inputs": [
        {
          "internalType": "uint256",
          "name": "_startBlock",
          "type": "uint256"
        },
        {
          "internalType": "uint256",
          "name": "_windowSize",
          "type": "uint256"
        }
      ],
      "name": "play",
      "outputs": [],
      "stateMutability": "payable",
      "type": "function"
    },
    {
      "inputs": [
        {
          "internalType": "uint256",
          "name": "",
          "type": "uint256"
        }
      ],
      "name": "prizePools",
      "outputs": [
        {
          "internalType": "uint256",
          "name": "",
          "type": "uint256"
        }
      ],
      "stateMutability": "view",
      "type": "function"
    },
    {
      "inputs": [
        {
          "internalType": "uint256",
          "name": "_newBaseFee",
          "type": "uint256"
        }
      ],
      "name": "setBaseFee",
      "outputs": [],
      "stateMutability": "nonpayable",
      "type": "function"
    },
    {
      "inputs": [
        {
          "internalType": "uint256",
          "name": "_hard",
          "type": "uint256"
        },
        {
          "internalType": "uint256",
          "name": "_normal",
          "type": "uint256"
        },
        {
          "internalType": "uint256",
          "name": "_easy",
          "type": "uint256"
        }
      ],
      "name": "setDistributionPercentages",
      "outputs": [],
      "stateMutability": "nonpayable",
      "type": "function"
    },
    {
      "inputs": [
        {
          "internalType": "string",
          "name": "_newUsername",
          "type": "string"
        }
      ],
      "name": "setUsername",
      "outputs": [],
      "stateMutability": "nonpayable",
      "type": "function"
    },
    {
      "inputs": [
        {
          "internalType": "address",
          "name": "",
          "type": "address"
        }
      ],
      "name": "totalWagered",
      "outputs": [
        {
          "internalType": "uint256",
          "name": "",
          "type": "uint256"
        }
      ],
      "stateMutability": "view",
      "type": "function"
    },
    {
      "inputs": [
        {
          "internalType": "address",
          "name": "",
          "type": "address"
        }
      ],
      "name": "totalWon",
      "outputs": [
        {
          "internalType": "uint256",
          "name": "",
          "type": "uint256"
        }
      ],
      "stateMutability": "view",
      "type": "function"
    },
    {
      "inputs": [
        {
          "internalType": "address",
          "name": "",
          "type": "address"
        }
      ],
      "name": "usernames",
      "outputs": [
        {
          "internalType": "string",
          "name": "",
          "type": "string"
        }
      ],
      "stateMutability": "view",
      "type": "function"
    }
  ],
  "bytecode": "0x608060405234801561001057600080fd5b50336000806101000a81548173ffffffffffffffffffffffffffffffffffffffff021916908373ffffffffffffffffffffffffffffffffffffffff160217905550602d6007819055506019600881905550600f60098190555067016345785d8a000060018190555061238d806100876000396000f3fe6080604052600436106101665760003560e01c80638b629e03116100d1578063e05fa2151161008a578063eddad39411610064578063eddad39414610526578063ee91877c14610563578063f0260660146105a0578063f0e3fff8146105cb57610166565b8063e05fa215146104a7578063e58a466f146104d2578063ed59313a146104fd57610166565b80638b629e03146103955780638da5cb5b146103c0578063a1fc5541146103eb578063a2b1728814610414578063bf14ab191461043f578063d4505e241461046a57610166565b8063470762e911610123578063470762e91461027d5780634fd66eae146102ba5780636ef25c3a146102f85780637996685c146103235780637999b66b1461034e5780637bc49a951461037957610166565b806333a544e41461016b578063353cf1fb14610198578063355d4aa3146101c15780633bd4e251146101fe5780633f0a9b02146102295780634686069814610254575b600080fd5b34801561017757600080fd5b50610180610608565b60405161018f939291906114d1565b60405180910390f35b3480156101a457600080fd5b506101bf60048036038101906101ba9190611548565b610621565b005b3480156101cd57600080fd5b506101e860048036038101906101e3919061159b565b610723565b6040516101f591906115c8565b60405180910390f35b34801561020a57600080fd5b5061021361073b565b60405161022091906115c8565b60405180910390f35b34801561023557600080fd5b5061023e610741565b60405161024b91906115c8565b60405180910390f35b34801561026057600080fd5b5061027b6004803603810190610276919061159b565b610747565b005b34801561028957600080fd5b506102a4600480360381019061029f9190611641565b6107df565b6040516102b191906115c8565b60405180910390f35b3480156102c657600080fd5b506102e160048036038101906102dc9190611641565b6107f7565b6040516102ef92919061166e565b60405180910390f35b34801561030457600080fd5b5061030d610883565b60405161031a91906115c8565b60405180910390f35b34801561032f57600080fd5b50610338610889565b60405161034591906115c8565b60405180910390f35b34801561035a57600080fd5b5061036361088f565b60405161037091906115c8565b60405180910390f35b610393600480360381019061038e9190611697565b610895565b005b3480156103a157600080fd5b506103aa610ed7565b6040516103b791906115c8565b60405180910390f35b3480156103cc57600080fd5b506103d5610edd565b6040516103e291906116e6565b60405180910390f35b3480156103f757600080fd5b50610412600480360381019061040d919061159b565b610f01565b005b34801561042057600080fd5b5061042961122d565b60405161043691906115c8565b60405180910390f35b34801561044b57600080fd5b50610454611233565b60405161046191906115c8565b60405180910390f35b34801561047657600080fd5b50610491600480360381019061048c919061159b565b611239565b60405161049e91906115c8565b60405180910390f35b3480156104b357600080fd5b506104bc61126f565b6040516104c991906116e6565b60405180910390f35b3480156104de57600080fd5b506104e7611295565b6040516104f491906115c8565b60405180910390f35b34801561050957600080fd5b50610524600480360381019061051f9190611847565b61129b565b005b34801561053257600080fd5b5061054d6004803603810190610548919061159b565b6113c2565b60405161055a91906115c8565b60405180910390f35b34801561056f57600080fd5b5061058a60048036038101906105859190611641565b6113da565b604051610597919061190f565b60405180910390f35b3480156105ac57600080fd5b506105b561147a565b6040516105c291906116e6565b60405180910390f35b3480156105d757600080fd5b506105f260048036038101906105ed9190611641565b6114a0565b6040516105ff91906115c8565b60405180910390f35b6000806000600454600554600654925092509250909192565b60008054906101000a900473ffffffffffffffffffffffffffffffffffffffff1673ffffffffffffffffffffffffffffffffffffffff163373ffffffffffffffffffffffffffffffffffffffff16146106af576040517f08c379a00000000000000000000000000000000000000000000000000000000081526004016106a6906119a3565b60405180910390fd5b60648183856106be91906119f2565b6106c891906119f2565b1115610709576040517f08c379a000000000000000000000000000000000000000000000000000000000815260040161070090611a72565b60405180910390fd5b826007819055508160088190555080600981905550505050565b60026020528060005260406000206000915090505481565b60065481565b60085481565b60008054906101000a900473ffffffffffffffffffffffffffffffffffffffff1673ffffffffffffffffffffffffffffffffffffffff163373ffffffffffffffffffffffffffffffffffffffff16146107d5576040517f08c379a00000000000000000000000000000000000000000000000000000000081526004016107cc906119a3565b60405180910390fd5b8060018190555050565b600a6020528060005260406000206000915090505481565b600080600a60008473ffffffffffffffffffffffffffffffffffffffff1673ffffffffffffffffffffffffffffffffffffffff16815260200190815260200160002054600b60008573ffffffffffffffffffffffffffffffffffffffff1673ffffffffffffffffffffffffffffffffffffffff1681526020019081526020016000205491509150915091565b60015481565b60075481565b600d5481565b60006108a083611239565b90508034146108e4576040517f08c379a00000000000000000000000000000000000000000000000000000000081526004016108db90611ade565b60405180910390fd5b60018214806108f35750600582145b806108fe5750600a82145b61093d576040517f08c379a000000000000000000000000000000000000000000000000000000000815260040161093490611b4a565b60405180910390fd5b80600a60003373ffffffffffffffffffffffffffffffffffffffff1673ffffffffffffffffffffffffffffffffffffffff168152602001908152602001600020600082825461098c91906119f2565b92505081905550600f54600a60003373ffffffffffffffffffffffffffffffffffffffff1673ffffffffffffffffffffffffffffffffffffffff168152602001908152602001600020541115610a6457600a60003373ffffffffffffffffffffffffffffffffffffffff1673ffffffffffffffffffffffffffffffffffffffff16815260200190815260200160002054600f8190555033600e60006101000a81548173ffffffffffffffffffffffffffffffffffffffff021916908373ffffffffffffffffffffffffffffffffffffffff1602179055505b60008284610a7291906119f2565b9050804310610ab6576040517f08c379a0000000000000000000000000000000000000000000000000000000008152600401610aad90611bdc565b60405180910390fd5b834310158015610ac557508043105b15610d5f5760006003600086815260200190815260200160002054905060008482610af09190611c2b565b905060008183610b009190611c5c565b90508060036000898152602001908152602001600020819055506000600260008981526020019081526020016000208190555060008234610b4191906119f2565b905060018703610b685760045481610b5991906119f2565b90506000600481905550610bb0565b60058703610b8d5760055481610b7e91906119f2565b90506000600581905550610baf565b600a8703610bae5760065481610ba391906119f2565b905060006006819055505b5b5b600d54811115610c035780600d8190555033600c60006101000a81548173ffffffffffffffffffffffffffffffffffffffff021916908373ffffffffffffffffffffffffffffffffffffffff1602179055505b80600b60003373ffffffffffffffffffffffffffffffffffffffff1673ffffffffffffffffffffffffffffffffffffffff1681526020019081526020016000206000828254610c5291906119f2565b9250508190555060003373ffffffffffffffffffffffffffffffffffffffff1682604051610c7f90611cc1565b60006040518083038185875af1925050503d8060008114610cbc576040519150601f19603f3d011682016040523d82523d6000602084013e610cc1565b606091505b5050905080610d05576040517f08c379a0000000000000000000000000000000000000000000000000000000008152600401610cfc90611d22565b60405180910390fd5b3373ffffffffffffffffffffffffffffffffffffffff167f35c728d20144d84eab692166b0831c2a9d71d052e243da8c28d1e7bc8ee00bdf4384604051610d4d92919061166e565b60405180910390a25050505050610e03565b34600360008681526020019081526020016000206000828254610d8291906119f2565b92505081905550600260008581526020019081526020016000206000815480929190610dad90611d42565b91905055503373ffffffffffffffffffffffffffffffffffffffff167f48aa3c793329fc37c8fadc61b042500f3d29307c71aa9b001a8234a3e01269e88534604051610dfa92919061166e565b60405180910390a25b3373ffffffffffffffffffffffffffffffffffffffff167f518fe7501685a267757fa6cd1db666952ee3e655b901ba1eb1cd4e50cfdc8588600a60003373ffffffffffffffffffffffffffffffffffffffff1673ffffffffffffffffffffffffffffffffffffffff16815260200190815260200160002054600b60003373ffffffffffffffffffffffffffffffffffffffff1673ffffffffffffffffffffffffffffffffffffffff16815260200190815260200160002054604051610ec992919061166e565b60405180910390a250505050565b60045481565b60008054906101000a900473ffffffffffffffffffffffffffffffffffffffff1681565b60008054906101000a900473ffffffffffffffffffffffffffffffffffffffff1673ffffffffffffffffffffffffffffffffffffffff163373ffffffffffffffffffffffffffffffffffffffff1614610f8f576040517f08c379a0000000000000000000000000000000000000000000000000000000008152600401610f86906119a3565b60405180910390fd5b804311610fd1576040517f08c379a0000000000000000000000000000000000000000000000000000000008152600401610fc890611dfc565b60405180910390fd5b6000600360008381526020019081526020016000205490506000811161102c576040517f08c379a000000000000000000000000000000000000000000000000000000000815260040161102390611e68565b60405180910390fd5b6000600360008481526020019081526020016000208190555060006064600754836110579190611e88565b6110619190611c2b565b905060006064600854846110759190611e88565b61107f9190611c2b565b905060006064600954856110939190611e88565b61109d9190611c2b565b90506000818385876110af9190611c5c565b6110b99190611c5c565b6110c39190611c5c565b905083600460008282546110d791906119f2565b9250508190555082600560008282546110f091906119f2565b92505081905550816006600082825461110991906119f2565b9250508190555060008111156111e85760008060009054906101000a900473ffffffffffffffffffffffffffffffffffffffff1673ffffffffffffffffffffffffffffffffffffffff168260405161116090611cc1565b60006040518083038185875af1925050503d806000811461119d576040519150601f19603f3d011682016040523d82523d6000602084013e6111a2565b606091505b50509050806111e6576040517f08c379a00000000000000000000000000000000000000000000000000000000081526004016111dd90611f16565b60405180910390fd5b505b7f2ca0de4ee0337a8a2eee81f43538bf24bf4d8866771ccd3e7722c7c2acea76788585858560405161121d9493929190611f36565b60405180910390a1505050505050565b60055481565b60095481565b60006001600260008481526020019081526020016000205461125b91906119f2565b6001546112689190611e88565b9050919050565b600e60009054906101000a900473ffffffffffffffffffffffffffffffffffffffff1681565b600f5481565b60008151116112df576040517f08c379a00000000000000000000000000000000000000000000000000000000081526004016112d690611fc7565b60405180910390fd5b602081511115611324576040517f08c379a000000000000000000000000000000000000000000000000000000000815260040161131b90612059565b60405180910390fd5b80601060003373ffffffffffffffffffffffffffffffffffffffff1673ffffffffffffffffffffffffffffffffffffffff16815260200190815260200160002090816113709190612285565b503373ffffffffffffffffffffffffffffffffffffffff167f74d8e560d2e870c35b35dc882df2a5c96e2bf1cdb5ef6dd2f9cb433c8d048853826040516113b7919061190f565b60405180910390a250565b60036020528060005260406000206000915090505481565b601060205280600052604060002060009150905080546113f9906120a8565b80601f0160208091040260200160405190810160405280929190818152602001828054611425906120a8565b80156114725780601f1061144757610100808354040283529160200191611472565b820191906000526020600020905b81548152906001019060200180831161145557829003601f168201915b505050505081565b600c60009054906101000a900473ffffffffffffffffffffffffffffffffffffffff1681565b600b6020528060005260406000206000915090505481565b6000819050919050565b6114cb816114b8565b82525050565b60006060820190506114e660008301866114c2565b6114f360208301856114c2565b61150060408301846114c2565b949350505050565b6000604051905090565b600080fd5b600080fd5b611525816114b8565b811461153057600080fd5b50565b6000813590506115428161151c565b92915050565b60008060006060848603121561156157611560611512565b5b600061156f86828701611533565b935050602061158086828701611533565b925050604061159186828701611533565b9150509250925092565b6000602082840312156115b1576115b0611512565b5b60006115bf84828501611533565b91505092915050565b60006020820190506115dd60008301846114c2565b92915050565b600073ffffffffffffffffffffffffffffffffffffffff82169050919050565b600061160e826115e3565b9050919050565b61161e81611603565b811461162957600080fd5b50565b60008135905061163b81611615565b92915050565b60006020828403121561165757611656611512565b5b60006116658482850161162c565b91505092915050565b600060408201905061168360008301856114c2565b61169060208301846114c2565b9392505050565b600080604083850312156116ae576116ad611512565b5b60006116bc85828601611533565b92505060206116cd85828601611533565b9150509250929050565b6116e081611603565b82525050565b60006020820190506116fb60008301846116d7565b92915050565b600080fd5b600080fd5b6000601f19601f8301169050919050565b7f4e487b7100000000000000000000000000000000000000000000000000000000600052604160045260246000fd5b6117548261170b565b810181811067ffffffffffffffff821117156117735761177261171c565b5b80604052505050565b6000611786611508565b9050611792828261174b565b919050565b600067ffffffffffffffff8211156117b2576117b161171c565b5b6117bb8261170b565b9050602081019050919050565b82818337600083830152505050565b60006117ea6117e584611797565b61177c565b90508281526020810184848401111561180657611805611706565b5b6118118482856117c8565b509392505050565b600082601f83011261182e5761182d611701565b5b813561183e8482602086016117d7565b91505092915050565b60006020828403121561185d5761185c611512565b5b600082013567ffffffffffffffff81111561187b5761187a611517565b5b61188784828501611819565b91505092915050565b600081519050919050565b600082825260208201905092915050565b60005b838110156118ca5780820151818401526020810190506118af565b60008484015250505050565b60006118e182611890565b6118eb818561189b565b93506118fb8185602086016118ac565b6119048161170b565b840191505092915050565b6000602082019050818103600083015261192981846118d6565b905092915050565b7f4f6e6c79206f776e65722063616e2063616c6c20746869732066756e6374696f60008201527f6e00000000000000000000000000000000000000000000000000000000000000602082015250565b600061198d60218361189b565b915061199882611931565b604082019050919050565b600060208201905081810360008301526119bc81611980565b9050919050565b7f4e487b7100000000000000000000000000000000000000000000000000000000600052601160045260246000fd5b60006119fd826114b8565b9150611a08836114b8565b9250828201905080821115611a2057611a1f6119c3565b5b92915050565b7f50657263656e74616765732063616e6e6f742065786365656420313030000000600082015250565b6000611a5c601d8361189b565b9150611a6782611a26565b602082019050919050565b60006020820190508181036000830152611a8b81611a4f565b9050919050565b7f496e636f727265637420616d6f756e742073656e740000000000000000000000600082015250565b6000611ac860158361189b565b9150611ad382611a92565b602082019050919050565b60006020820190508181036000830152611af781611abb565b9050919050565b7f496e76616c696420646966666963756c74790000000000000000000000000000600082015250565b6000611b3460128361189b565b9150611b3f82611afe565b602082019050919050565b60006020820190508181036000830152611b6381611b27565b9050919050565b7f5468652073686f6f74696e672077696e646f772068617320616c72656164792060008201527f7061737365640000000000000000000000000000000000000000000000000000602082015250565b6000611bc660268361189b565b9150611bd182611b6a565b604082019050919050565b60006020820190508181036000830152611bf581611bb9565b9050919050565b7f4e487b7100000000000000000000000000000000000000000000000000000000600052601260045260246000fd5b6000611c36826114b8565b9150611c41836114b8565b925082611c5157611c50611bfc565b5b828204905092915050565b6000611c67826114b8565b9150611c72836114b8565b9250828203905081811115611c8a57611c896119c3565b5b92915050565b600081905092915050565b50565b6000611cab600083611c90565b9150611cb682611c9b565b600082019050919050565b6000611ccc82611c9e565b9150819050919050565b7f5072697a65207472616e73666572206661696c65640000000000000000000000600082015250565b6000611d0c60158361189b565b9150611d1782611cd6565b602082019050919050565b60006020820190508181036000830152611d3b81611cff565b9050919050565b6000611d4d826114b8565b91507fffffffffffffffffffffffffffffffffffffffffffffffffffffffffffffffff8203611d7f57611d7e6119c3565b5b600182019050919050565b7f54686520736f7572636520626c6f636b20686173206e6f74207061737365642060008201527f7965740000000000000000000000000000000000000000000000000000000000602082015250565b6000611de660238361189b565b9150611df182611d8a565b604082019050919050565b60006020820190508181036000830152611e1581611dd9565b9050919050565b7f4e6f207072697a6520706f6f6c20746f20636f6c6c6563740000000000000000600082015250565b6000611e5260188361189b565b9150611e5d82611e1c565b602082019050919050565b60006020820190508181036000830152611e8181611e45565b9050919050565b6000611e93826114b8565b9150611e9e836114b8565b9250828202611eac816114b8565b91508282048414831517611ec357611ec26119c3565b5b5092915050565b7f466565207472616e73666572206661696c656400000000000000000000000000600082015250565b6000611f0060138361189b565b9150611f0b82611eca565b602082019050919050565b60006020820190508181036000830152611f2f81611ef3565b9050919050565b6000608082019050611f4b60008301876114c2565b611f5860208301866114c2565b611f6560408301856114c2565b611f7260608301846114c2565b95945050505050565b7f557365726e616d652063616e6e6f7420626520656d7074790000000000000000600082015250565b6000611fb160188361189b565b9150611fbc82611f7b565b602082019050919050565b60006020820190508181036000830152611fe081611fa4565b9050919050565b7f557365726e616d6520697320746f6f206c6f6e6720286d61782033322063686160008201527f7273290000000000000000000000000000000000000000000000000000000000602082015250565b600061204360238361189b565b915061204e82611fe7565b604082019050919050565b6000602082019050818103600083015261207281612036565b9050919050565b7f4e487b7100000000000000000000000000000000000000000000000000000000600052602260045260246000fd5b600060028204905060018216806120c057607f821691505b6020821081036120d3576120d2612079565b5b50919050565b60008190508160005260206000209050919050565b60006020601f8301049050919050565b600082821b905092915050565b60006008830261213b7fffffffffffffffffffffffffffffffffffffffffffffffffffffffffffffffff826120fe565b61214586836120fe565b95508019841693508086168417925050509392505050565b6000819050919050565b600061218261217d612178846114b8565b61215d565b6114b8565b9050919050565b6000819050919050565b61219c83612167565b6121b06121a882612189565b84845461210b565b825550505050565b600090565b6121c56121b8565b6121d0818484612193565b505050565b5b818110156121f4576121e96000826121bd565b6001810190506121d6565b5050565b601f8211156122395761220a816120d9565b612213846120ee565b81016020851015612222578190505b61223661222e856120ee565b8301826121d5565b50505b505050565b600082821c905092915050565b600061225c6000198460080261223e565b1980831691505092915050565b6000612275838361224b565b9150826002028217905092915050565b61228e82611890565b67ffffffffffffffff8111156122a7576122a661171c565b5b6122b182546120a8565b6122bc8282856121f8565b600060209050601f8311600181146122ef57600084156122dd578287015190505b6122e78582612269565b86555061234f565b601f1984166122fd866120d9565b60005b8281101561232557848901518255600182019150602085019450602081019050612300565b86831015612342578489015161233e601f89168261224b565b8355505b6001600288020188555050505b50505050505056fea26469706673582212205849a9dfe6f24cab01333dccb7631827b7190929c459e87c9ce8cc76895c18be64736f6c63430008140033",
  "linkReferences": {},
  "deployedLinkReferences": {}
}